:100000000080002085440000B1440000B14400009D
:10001000B1440000B1440000B1440000B14400000C
:10002000B1440000B1440000B1440000B1440000FC
:10003000B1440000B1440000B1440000B1440000EC
:10004000B12A0000B1440000B1440000B1440000F6
:10005000B1440000B1440000B14400001D0E000096
:10006000B1440000B1440000B14400007D0600002E
:10007000B1440000B1440000B1440000B1440000AC
:10008000B1440000B1440000B1440000B14400009C
:10009000B1440000B1440000B1440000B14400008C
:1000A000C5080000B1440000CD0E0000B1440000BE
:1000B000B1440000B1440000B1440000B14400006C
:1000C000B1440000B1440000B1440000B14400005C
:1000D000B1440000B1440000B1440000B14400004C
:1000E00010B5054C237833B9044B13B10448AFF372
:1000F00000800123237010BD0001002000000000DB
:100100004851000008B5064B1BB106480649AFF33D
:1001100000800648036813B1054B03B1984708BD3A
:100120000000000048510000040100209000002061
:1001300000000000154B002B08BF134B9D46A3F594
:10014000803A00218B460F461348144A121A04F0D5
:10015000DAFD0F4B002B00D098470E4B002B00D040
:1001600098470020002104000D000D48002802D00F
:100170000C48AFF3008004F08FFD2000290000F050
:1001800087FF04F075FD00BF00000800008000201C
:100190000000000000000000000100203C080020DA
:1001A0000000000000000000B0B588B000AF134BA5
:1001B0003C1D1D460FCD0FC495E8030084E80300E5
:1001C0000F48012101F0AEFF3B1D0E48194601F01A
:1001D00057FA0A23FB770623BB77FA7FBB7F0948D0
:1001E00011461A4601F026FA00BF064B9B6803F041
:1001F0000103002BF9D02037BD46B0BD404E0000B2
:10020000009204000010004080B586B000AF244882
:10021000012101F087FF2348012101F083FF002322
:100220003B7400237B740023BB741F23FB740023E7
:100230003B7500237B7500233B7100237B710023FA
:10024000BB710023FB7100233B7200237B720023F0
:10025000BB720023FB7200233B73002001F0B2FB52
:100260000346FB741048002101F07AFB03463B75FE
:1002700007F110030D48194601F0E2FA08233B721A
:100280000023BB710023FB7100237B7101233B73AF
:100290003B1D0648194601F017FB1837BD4680BDC7
:1002A000408104000002050020D613000020004019
:1002B00080B582B000AF78600B46FB70FB78002BF6
:1002C00001D10123FB70FB78184604F00BFD0246B8
:1002D0007B681A607B681A68FB78013B1A447B686C
:1002E0005A607B681A687B689A607B681A687B68CA
:1002F000DA607B68FA781A747B6800225A7400BF4F
:100300000837BD4680BD00BF80B582B000AF7860C1
:1003100039607B685A7C7B681B7C9A4202D17B687F
:1003200000225A747B689A687B685B689A420BD19A
:100330007B689B6818463968012204F0DBFC7B6807
:100340001A687B689A6009E07B689B68591C7A6828
:10035000916018463968012204F0CCFC7B685B7C14
:100360000133DAB27B685A7400BF0837BD4680BDDE
:1003700080B582B000AF786039607B685B7C002B11
:1003800000D122E07B68DA687B685B689A420BD117
:100390007B68DB6838681946012204F0ABFC7B6897
:1003A0001A687B68DA6009E07B68DB68591C7A6848
:1003B000D16038681946012204F09CFC7B685B7CA4
:1003C000013BDAB27B685A7400BF0837BD4680BD76
:1003D00080B485B000AFF8600B467A60FB72054BC5
:1003E000044A126822F400521A601437BD465DF8C0
:1003F000047B70470040084080B586B000AF164BC4
:10040000164A1A60144B00225A60134B01221A72CA
:1004100000233B7301237B73114B3B610E4B7B61CC
:1004200007F10C030020194602F0CEFB03233B71B9
:1004300000237B710023BB710023FB7100233B72FF
:100440003B1D002001211A4602F006FC054B064A1E
:100450005A601837BD4680BD6C010020D1030000F2
:1004600001001000000200202840084080B483B042
:1004700000AF7860044B7A68C3F81C210C37BD4686
:100480005DF8047B704700BF0060004080B400AF9F
:10049000034BD3F814311846BD465DF8047B704712
:1004A0000060004080B483B000AF03463960FB7148
:1004B000FB79002B0DD0FB79012B0AD0FB79022BA5
:1004C00007D0FB79032B04D0FB79042B01D0FB79F7
:1004D000052B0948FA793B68012101FA03F3194613
:1004E0001346DB0013449B000344103359600C3760
:1004F000BD465DF8047B70470060004080B483B067
:1005000000AF03463960FB71FB79002B0DD0FB79FE
:10051000012B0AD0FB79022B07D0FB79032B04D0E7
:10052000FB79042B01D0FB79052B0948FA793B684C
:10053000012101FA03F319461346DB0013449B0023
:100540000344103319600C37BD465DF8047B7047D7
:100550000060004080B400AF72B6084B1B68B3F176
:10056000FF3F04D0054B1B685A1C044B1A60034B19
:100570001B681846BD465DF8047B70475C0100208F
:1005800080B483B000AF0C4B1B68002B0DD00A4B1E
:100590001B685A1E084B1A60074B1B687B607B6800
:1005A000002B00D162B67B6800E0002318460C37B0
:1005B000BD465DF8047B70475C01002080B588B0C3
:1005C00000AF78600B46FB707223BB810123FB8177
:1005D0007B683B61FB789BB2BB820A4BBB610A2301
:1005E000BB8307F10C030848194603F0B7F900BFB5
:1005F000054802F08DFF0346012BF9D02037BD4698
:1006000080BD00BF0C04002000A4004080B586B06F
:1006100000AF7223BB800423FB80144BBB6001231B
:10062000BB81134B3B610A23BB823B1D114819461A
:1006300003F094F903461A460F4B1A700CE00E4B68
:100640001B785BB2012B00D00AE00A4802F060FF81
:1006500003461A46084B1A70074B1B78002BEED145
:10066000034B1B7818461837BD4680BD1C0100207F
:100670000C04002000A400400004002080B582B0DB
:1006800000AFFFF767FFFFF701FF03461846FFF7CC
:10069000EDFE244B1B6803F00103002B37D1C02370
:1006A0003B713B1D18460121FFF788FF1E4B8C2232
:1006B0001A70FFF7ABFF03461A461C4B1A701A4B11
:1006C0008D221A70FFF7A2FF03461A46184B1A70C4
:1006D000174B1B781B029AB2144B1B7813439BB227
:1006E000FB80FB880E2B07D804200221FFF706FFB2
:1006F000104B01221A600AE0FB88B3F5006F06D99F
:1007000004200221FFF7CEFE0A4B00221A60054B9F
:100710001B685A1C034B1A60FFF732FF0837BD46AF
:1007200080BD00BF200100201C0100200904002022
:10073000080400200404002090B585B000AF1348E1
:10074000012101F0EFFC124B3C460FCB84E80F0077
:10075000104B03229A633B460E48194602F09CFE5A
:100760000C4B9B6803F00103002B02D0094B2022A5
:100770005A60084B72225A61064B064A126842F0D0
:1007800016021A601437BD4690BD00BF00C20400B7
:10079000584E000000A4004080B500AF00200121A9
:1007A000012202F03FF80948022101F0C1FE084B86
:1007B000074A926E42F400729A660648012101F0DF
:1007C000B1FC0548012101F0ADFC80BD020018001C
:1007D00000800C40004302006026120080B500AF8C
:1007E0001E48012101F09EFC0420012102F0ECFCD6
:1007F0000320012102F0E8FC04200221042200234E
:1008000002F01AFD042003210422002302F014FD4B
:10081000032006210422012302F00EFD02200621FE
:100820000022002302F008FD022005210B220123F3
:1008300002F002FD022004210B22012302F0FCFC45
:10084000032000210422002302F0F6FC03200121F2
:100850000122002302F0F0FC80BD00BF00D20400A2
:1008600080B483B000AF0346FB71084B97F90720B3
:100870005209F97901F01F01012000FA01F143F852
:1008800022100C37BD465DF8047B704700E100E0A4
:1008900080B483B000AF786039607B683A685A638F
:1008A0000C37BD465DF8047B704700BF80B483B051
:1008B00000AF78607B68DB6A18460C37BD465DF890
:1008C000047B704780B582B000AF0648FFF7EEFFAB
:1008D00003467B607B6803481946FFF7D9FF08375A
:1008E000BD4680BD0040084080B584B000AF002008
:1008F0000121012201F096FF2048022101F018FE9B
:100900001F48012101F00EFC1E4803F049FD0023A1
:100910003B7000237B604FF41653BB6000233B7396
:1009200000237B730023BB733B461648194603F034
:10093000F5FC144840F2FF71FFF7AAFF114B0322A8
:100940005A65032004210422012302F075FC0320D0
:1009500005210422012302F06FFC0A4B094A926B25
:1009600042F001029A630748052103F091FC182028
:10097000FFF776FF1037BD4680BD00BF03001A00A9
:10098000700714000040084080B483B000AF0346F5
:10099000FB71084B97F907205209F97901F01F0103
:1009A000012000FA01F143F822100C37BD465DF832
:1009B000047B704700E100E080B483B000AF0346E1
:1009C0003960FB71FB79002B0DD0FB79012B0AD02C
:1009D000FB79022B07D0FB79032B04D0FB79042B86
:1009E00001D0FB79052B0948FA793B68012101FA0E
:1009F00003F319461346DB0013449B0003441033F2
:100A000059600C37BD465DF8047B704700600040BC
:100A100080B483B000AF03463960FB71FB79002BD3
:100A20000DD0FB79012B0AD0FB79022B07D0FB7983
:100A3000032B04D0FB79042B01D0FB79052B09484B
:100A4000FA793B68012101FA03F319461346DB00EA
:100A500013449B000344103319600C37BD465DF806
:100A6000047B70470060004080B582B000AF0C4B43
:100A70001B687B603B46184603F0CAFC7B681B0E74
:100A80000F2B0AD93B78032B07D1064B054A126876
:100A900022F0500242F010021A600837BD4680BDB5
:100AA000FC81E00FC0800C4080B483B000AF786060
:100AB00039607B683A689A620C37BD465DF8047B02
:100AC000704700BF80B483B000AF786039607B6846
:100AD000DA6A3B681A437B68DA620C37BD465DF818
:100AE000047B704780B483B000AF78607B681B6A7A
:100AF00018460C37BD465DF8047B704780B483B060
:100B000000AF78607B685B6A18460C37BD465DF8BD
:100B1000047B704780B483B000AF786039607B6835
:100B20003A681A620C37BD465DF8047B704700BF17
:100B300080B483B000AF78607B689B6918460C373F
:100B4000BD465DF8047B704780B483B000AF786029
:100B50000B46FB70FA787B685A600C37BD465DF82F
:100B6000047B704780B586B002AF0023FB60002392
:100B7000BB603B1D12481946FFF7FAFB3B1D0133D2
:100B80000F481946FFF7F4FB3B1D02330C4819468A
:100B9000FFF7EEFB0B4B3A1D02321A600A4B4FF483
:100BA00000521A60002300930223019300200121C8
:100BB0000022002301F0E8FF1037BD4680BD00BFD2
:100BC0002C040020000200200040084080B586B0C0
:100BD00000AF786000237B6100233B61786804F0FC
:100BE00021F80346DBB2FB73FB7B5BB2184603F0D4
:100BF000FFFD03467868194603F044FD0346184696
:100C00000F4903F049FE0346184604F00BF803466B
:100C1000DBB2BB730B480C49FFF776FB07F10F0300
:100C200008481946FFF770FB07F10E0305481946FF
:100C3000FFF76AFBFFF796FF1837BD4680BD00BF80
:100C4000000020412C0400200404002080B586B060
:100C500000AF7860164B1B6803F47F031B0C18462B
:100C600003F0C2FD03467B61114BDB681B0D184688
:100C700003F0BAFD03463B610E4BFB60786803F05E
:100C8000B7FD03463869194603F0FCFC03461846D5
:100C9000F96803F0B5FE03467869194603F0F2FCE3
:100CA0000346BB60BB6818461837BD4680BD00BF11
:100CB000B081E00FD7A3C8C080B586B000AFF860A0
:100CC0000B467A60FB7200237B61012000F048FC38
:100CD000194B194A526842F002025A6000237B8283
:100CE0000BE07A8A154B33F812309BB21BB27A694B
:100CF00013447B617B8A01337B827B8AB3F5FA7F65
:100D0000EFD3786903F074FD034618460C4903F0ED
:100D100077FE0346184603F085FF03461846FFF7A3
:100D200095FF0246074B1A60064B1B681846FFF7F3
:100D30004DFF1837BD4680BD002000404404002010
:100D40000000FA430000002080B588B000AF1C48C6
:100D5000012101F0E7F900233B761A4BFB6107F113
:100D60001803184601F0B0FF174B184ADA60164B0B
:100D700000221A61144B01221A7500233B730123D0
:100D80007B734FF400233B61114B7B6107F10C0334
:100D90000120194601F018FF01233B7103237B71E9
:100DA0000123BB710023FB7100233B723B1D01201B
:100DB00001211A4601F050FF2037BD4680BD00BF1B
:100DC00000030200000200206C010020B90C0000AA
:100DD0007801002080B500AF0D4B1B6818460D4907
:100DE00003F016FF0346002B08D1094B1B68184679
:100DF000094903F0EFFE0346002B04D00420032131
:100E0000FFF706FE03E004200321FFF7D5FD80BDB8
:100E10000000002000000C420000704180B582B04C
:100E200000AF2548FFF784FE03467B607B682248BD
:100E30001946FFF76FFE2048FFF760FE02461F4B82
:100E40001B681A441D4B1A601D4B1A6840F2F313BD
:100E50009A4228D1012000F083FB174B164A5268B2
:100E600042F002025A60154B1B68184603F0BCFCA6
:100E700003461846134903F0C3FD0346184603F022
:100E8000D1FE03461846FFF7E1FE02460E4B1A60FC
:100E90000D4B1B681846FFF799FE084B00221A609D
:100EA000074B00221A60064B1B685A1C044B1A6041
:100EB0000837BD4680BD00BF00200040240100204F
:100EC0002C0100200000FA430000002080B586B00D
:100ED00002AF4648FFF706FE0346FB60FB68434847
:100EE0001946FFF7E1FD022000F024FB404B1A6891
:100EF000404B1B689A4246D13F4B9B6803F002036C
:100F00005B08BB60BB68002B19D104200221FFF7EE
:100F10007FFD3A4B01221A60394B3D221A61364857
:100F2000374900F0ADFB0A23FB710623BB71FA7948
:100F3000BB79314811461A4600F07CFB1BE0BB68C8
:100F4000012B18D104200221FFF736FD2B4B002284
:100F50001A602B4B02221A612748294900F090FBA6
:100F60000A237B7106233B717A793B79224811462B
:100F70001A4600F05FFB03200621FFF71DFD1E4807
:100F800000F020FB1DE01C4800F038FB0320062188
:100F9000FFF73EFD1B4B00221A60012000F0CAFA49
:100FA000194B009340F2F313019301200121002219
:100FB000164B01F0E9FD16480121FFF7C5FDFFF7CB
:100FC00009FF144B1A680B4B1B681A44084B1B682B
:100FD000D21A074B1A60064B1B68044800211A46B8
:100FE00003F05CF81037BD4680BD00BF002008400C
:100FF00040040020300800200010004004040020BD
:101000000400002028010020242000404404002087
:10101000002000402C08002080B584B000AF0220E2
:1010200000F088FA01233B7100237B710023BB7120
:101030000023FB7100233B7200237B720023BB72F1
:101040000023FB7200233B7300237B730023BB73DD
:101050000D480121FFF736FD1A20FFF795FC0B4BD9
:101060001B68094800211A4603F018F83B1D064882
:10107000194603F03FF8044B034A126842F4007229
:101080001A601037BD4680BD002008404004002093
:1010900080B500AFFFF7E8FC164B20221A60164B14
:1010A0004CF28E521A60134B1A68144B1A60144893
:1010B0006421FFF7FDF813486421FFF7F9F8FFF703
:1010C0006BFBFFF78BFBFFF70FFCFFF735FBFFF721
:1010D0009BF8002000F0FEF80B4800F057F9FFF7EE
:1010E00033FEFFF789F9FFF75FF8FFF795FF00F090
:1010F000FDF9FCE72C080020300800204004002007
:101100002C04002018040020684E000080B483B036
:1011100000AF0346FB71FB79002B03D0054B012286
:101120001A6602E0034B00221A660C37BD465DF8D2
:10113000047B704700A0084080B483B000AF7860A3
:1011400000BF054B5A6E7B681340002BF9D10C375A
:10115000BD465DF8047B704700A0084080B483B0B2
:1011600000AF7860054B054A916A7A68D2430A401D
:101170009A620C37BD465DF8047B704700A00840BA
:1011800080B500AF00202849002202F0F7FD0120C1
:101190002549002202F0F2FD02202349002202F03C
:1011A000EDFD03202049002202F0E8FD04201E4945
:1011B000002202F0E3FD05201B49002202F0DEFDC3
:1011C00006201949002202F0D9FD07201649002205
:1011D00002F0D4FD0020FF21002202F08DFE01204C
:1011E000FF21002202F088FE0220FF21002202F0EF
:1011F00083FE0320FF21002202F07EFE0420FF2157
:10120000002202F079FE0520FF21002202F074FE88
:101210000620FF21002202F06FFE0720FF2100229E
:1012200002F06AFE80BD00BF00F00FF080B500AF95
:1012300007202649002202F0A1FD062024490022B1
:1012400002F09CFD05202249002202F097FD0420B7
:101250001F49002202F092FD03201D49002202F0E6
:101260008DFD02201A49002202F088FD0120184954
:10127000002202F083FD00204FF02041002202F006
:101280007DFD07200721002202F036FE06200721FF
:10129000002202F031FE05200721002202F02CFE80
:1012A00004200721002202F027FE0320072100224C
:1012B00002F022FE02200721002202F01DFE012082
:1012C0000721002202F018FE00BF80BD00E00F5091
:1012D00000E00FF080B582B000AF0346FB712548F7
:1012E000012100F01FFF2448032101F021F92348C8
:1012F000402100F0FFFD012001F076FA2048012195
:1013000000F010FF4FF0FF30FFF728FF1D4802F0FC
:10131000C9FB0820012102F01FFC1020012102F06E
:101320001BFC8020012102F017FC4FF4807001218A
:1013300002F012FC4FF40070012102F00DFCFB7969
:10134000002B0DD04FF4402002F094FE4FF480307B
:1013500002F0E0FB0C4B0C4AD26F42F00802DA6755
:10136000FFF70EFF4FF0FF30FFF7E6FE0837BD46F0
:1013700080BD00BF0043020002001800600024008E
:10138000003626002851000000800C4080B58AB04D
:1013900000AF7860786803F023FD0346BB6100234B
:1013A0003B624FF0FF30FFF7C7FE0120FFF7AEFEB4
:1013B000FFF73CFF00233B6246E03A6ABB699A4272
:1013C00003DA7B681B787B6201E020237B627B6A07
:1013D000203B7B62214B7A6A33F81230FB82002378
:1013E000FB6128E01E493A6A1346DB009B1A9B000A
:1013F000CA18FB69134408339B793B6118493A6A60
:101400001346DB009B1A9B00FA6913440B441B78BC
:10141000FB60FA8AFB6942FA03F303F00103002B35
:1014200006D0FA683B6910461946012202F0B4FB67
:10143000FB690133FB61FB690D2BD3DD7B68013355
:101440007B603B6A01333B623B6A062BB5DD0020C3
:10145000FFF75CFE2837BD4680BD00BF705000001E
:10146000704E000080B400AF054B054A126922F0AF
:1014700004021A6130BFBD465DF8047B704700BFAF
:1014800000ED00E080B400AF72B6084B1B68B3F10A
:10149000FF3F04D0054B1B685A1C044B1A60034BDA
:1014A0001B681846BD465DF8047B70475C01002050
:1014B00080B483B000AF0C4B1B68002B0DD00A4BDF
:1014C0001B685A1E084B1A60074B1B687B607B68C1
:1014D000002B00D162B67B6800E0002318460C3771
:1014E000BD465DF8047B70475C01002080B500AF0D
:1014F0000F4B1B68002B00D018E00D4B5B68002BD6
:1015000002D0FFF7AFFF11E0094B9B68002B03D01F
:10151000012001F01FFD09E0054BDB68002B03D023
:10152000012001F065FD01E001F0C0FD80BD00BFBC
:101530003001002080B582B000AF7860FFF7A2FFD5
:10154000064B7A6853F82230591C044B7A6843F8EA
:101550002210FFF7ADFF0837BD4680BD30010020E7
:1015600080B582B000AF7860FFF78CFF094B7A68D6
:1015700053F82230002B08D0064B7A6853F82230FB
:10158000591E044B7A6843F82210FFF791FF083781
:10159000BD4680BD3001002080B487B000AFF86048
:1015A000B9607A60FB6803F10473DA00BB68134426
:1015B0009B007B617B697A681A601C37BD465DF8C9
:1015C000047B704780B483B000AF78607A68094BC1
:1015D0009A4203D07A68084B9A4200D100BF7B68D8
:1015E0001B6823F001027B681A600C37BD465DF86A
:1015F000047B7047001000400014004080B483B0AA
:1016000000AF78607A68094B9A4203D07A68084B39
:101610009A4200D100BF7B681B6843F001027B68DF
:101620001A600C37BD465DF8047B7047001000401F
:101630000014004080B483B000AF786013460A46BF
:10164000FA70BB707A680C4B9A4203D07A680B4BE5
:101650009A4200D100BF7B685B6823F0F702FB78F9
:101660001B011A43BB781A437B685A600C37BD468E
:101670005DF8047B704700BF00100040001400407C
:1016800080B582B000AF786039607A68224B9A42A8
:1016900003D07A68214B9A4200D100BF7B6818467C
:1016A00000210022FFF778FF3B681B78DA073B68D0
:1016B0005B789B0713431A463B685B681B061A431B
:1016C0003B681B7A5B041A433B685B7A1B041A4332
:1016D0003B689B7A1B021A433B68DB7A1B011A4367
:1016E0003B681B7B9B001A437B681A603B685B7BF3
:1016F0001B041A463B681B691B021A437B685A602D
:101700007A683B681B7D104600211A46FFF744FFAC
:101710000837BD4680BD00BF0010004000140040E7
:1017200080B487B000AF786013460A46FA70BB7089
:10173000BB78002B04D01023FB603E4B3B6103E0E1
:101740000023FB603C4B3B617B685A6B3B69134059
:10175000BB6000237B61FB78062B5BD801A252F8AB
:1017600023F000BF811700009F170000C31700007F
:10177000E1170000151800001518000005180000FA
:101780002E4B5B6803F4FE437A6913437B612B4B5A
:101790005B6803F07F037A6913437B613DE0274B6D
:1017A0005B6803F0FE431B0E1B027A6913437B61E7
:1017B000224B5B6803F4FE031B0C7A6913437B61C5
:1017C0002BE01E4B9B6803F4FE437A6913437B6155
:1017D0001A4B9B6803F07F037A6913437B611CE01B
:1017E000164B9B6803F0FE431B0E1B027A691343E2
:1017F0007B61124B9B6803F4FE031B0C7A69134355
:101800007B610AE00D4BDB6803F07F037A691343C9
:101810007B6102E000237B6100BFFB687A699A402C
:10182000BB681A437B685A631C37BD465DF8047B6E
:10183000704700BFFFFF80808080FFFFB081E00F16
:1018400080B584B000AF786039603B681B79FB726B
:10185000FB7A002B06D11B48002100F081F80346DB
:10186000FB7208E01748002100F07AF84FF4FA40C4
:10187000002100F075F87B680A225A603B681B78EB
:101880001A063B68DB781B0403F4FE031A43FB7A59
:101890001B0203F4FE431A433B685B781B011A43A7
:1018A0003B689B781343FB603B685B79002B03D05C
:1018B000FB6843F00803FB607B68FA681A60103726
:1018C000BD4680BD405DC60080B584B000AF786085
:1018D00039607B6802225A603B689B7878681946B9
:1018E0000022FFF71DFF3B681B781A073B685B78F7
:1018F0001B051A433B681B791B0213431A463B68BE
:10190000DB781B011343FB603B689B79002B03D002
:10191000FB6843F08073FB603B68DB79002B03D0EE
:10192000FB6843F00403FB603B685B79002B03D04A
:10193000FB6843F00203FB603B681B7A002B03D07B
:10194000FB6843F00103FB603B689B781B04FA686B
:101950001343FB607B68FA68DA601037BD4680BDD0
:1019600080B584B000AF786039607A68134B9A42D2
:1019700002D9124B7B6006E07B68B3F5FA4F02D2C6
:101980004FF4FA437B603B68002B03D10C4800F016
:1019900035FC38603A687B6813445A1E7B68B2FB9A
:1019A000F3F3FB60FB68002B02D0FB68013BFB609C
:1019B000FB68DBB218461037BD4680BD405DC600EF
:1019C0004081040080B582B000AF78607B68002B56
:1019D00008D1114800F012FC78607B68002B01D11F
:1019E00001237B607A680D4B9A4201D90B4B7B60D7
:1019F0007B6803F5742303F23F237B607A68084B0E
:101A0000A3FB02139B0C7B607B68DBB2013BDBB268
:101A100018460837BD4680BD408104000048E801F3
:101A200083DE1B4380B487B000AFF860B9607A6092
:101A3000FB6803F10473DA00BB6813449B007B610D
:101A40007B697A681A601C37BD465DF8047B704775
:101A500080B485B000AF786039607B6803F10473AF
:101A6000DA003B6813449B00FB60FB681B68184668
:101A70001437BD465DF8047B704700BF80B485B065
:101A800000AF78607B68002B04D07B68B3F5004F13
:101A900000D800BF7B68B3FA83F3C3F11F03FB6078
:101AA000FB6818461437BD465DF8047B704700BFDD
:101AB00080B400AF044BDB6C1B0EDBB21846BD4696
:101AC0005DF8047B704700BFB081E00F80B400AFC9
:101AD000054BDB6C03F47F031B0CDBB21846BD46E1
:101AE0005DF8047B704700BFB081E00F80B582B025
:101AF00000AFFFF7EBFF03464A2B04D0792B02D04F
:101B0000482B22D023E0144B1B699BB203F03F0308
:101B10009BB21B02FB80104B9B699BB203F0F0034E
:101B20009AB2FB881343FB800B4BDB6903F0F00395
:101B30001B099AB2FB881343FB80FB88B3F5017F36
:101B400001D3064B04E0064B02E0054B00E0002306
:101B500018460837BD4680BDD0FF0FE000366E0145
:101B60000048E80180B584B000AF786039607A68D9
:101B70003B689A4294BF00230123DBB2FB60064816
:101B80001E21FA68FFF74EFF04480821FA68FFF7A4
:101B900049FF1037BD4680BD00800C4004800C40DA
:101BA00080B582B000AF07481E21FFF751FF786073
:101BB00005480821FFF74CFF38607B681846083756
:101BC000BD4680BD00800C4004800C4080B582B0D2
:101BD00000AF214B5B6903F4E063B3F5007F1CD0D9
:101BE000B3F5007F05D8002B25D0B3F5807F1FD03B
:101BF0002AE0B3F5C06F24D0B3F5E06F1ED0B3F583
:101C0000407F21D1FFF754FF0346122B02D9134B1B
:101C10007B601CE0124B7B6019E0FFF749FF034635
:101C2000122B02D90F4B7B6011E00F4B7B600EE053
:101C30000E4B7B600BE00E4B7B6008E00D4B7B6036
:101C400005E00D4B7B6002E000237B6000BF7B68FA
:101C500018460837BD4680BD00800C40804F1200FA
:101C600040420F0040B56400C0CF6A00C0D8A70052
:101C7000809FD500406F4001003FAB0180B582B02E
:101C800000AF0D4800F0A6FB0346FB70FB78072B66
:101C900005D0082B07D102F03FFC786006E0FFF783
:101CA00095FF786002E000237B6000BF7B681846E8
:101CB0000837BD4680BD00BF06000C0080B485B06B
:101CC00000AF7860284BDB6B002B0CBF0023012397
:101CD000BB72254B41F67132DA63234B5B6803F02C
:101CE0000703FB60FB68012B01D9042B02D1002301
:101CF000FB7202E00123FB7200BF7A681B4B9A4221
:101D000007D9FB7A002B01D0052300E00423FB60F8
:101D100016E07A68154B9A420BD87A68144B9A42AF
:101D200007D9FB7A002B01D0032300E00123FB60DD
:101D300006E0FB7A002B01D0022300E00023FB60C9
:101D4000094B094A526822F00701FA680A435A60AF
:101D5000BB7A002B02D0044B0022DA631437BD4655
:101D60005DF8047B704700BF00000C400048E801AC
:101D70000024F40080B500AF02F0C4FB034618460F
:101D8000FFF79CFF80BD00BF90B585B000AF7860C5
:101D90000023BB607B68344A934203D0334A9342AA
:101DA00000D000E000BF786800F014FB0346FB6041
:101DB0007B682D4A934203D02C4A934206D00CE014
:101DC0002B4B9B6A03F00303FB6006E0284B9B6AE6
:101DD00003F00C039B08FB6000BFFB68032B3AD8A1
:101DE00001A252F823F000BF1F1E0000F91D0000E1
:101DF000011E0000091E000002F020FCB8602DE06A
:101E000002F030FCB86029E002F062FB0446FFF704
:101E1000C7FE0346013324FA03F3BB601EE0002330
:101E2000BB607A68104B9A4203D07A680F4B9A4293
:101E300010D10F4B9A6A79680B4B994201D110234C
:101E400000E0142322FA03F3002B03D002F000FC7D
:101E5000B86003E002E00023BB6000BFBB68184627
:101E60001437BD4690BD00BF0200180003001A00E1
:101E700000800C4080B483B000AF7860094B5B6D8C
:101E800003F00103002B00D006E000BF054B1A6DE4
:101E90007B681340002BF9D10C37BD465DF8047BFD
:101EA000704700BF00800C4080B582B000AF104882
:101EB00000F090FA0346FB70FB78032B07D0082B49
:101EC00009D0022B0BD102F0CDFB78600AE002F0C2
:101ED000B5FB786006E002F01FFB786002E00023AB
:101EE0007B6000BF7B6818460837BD4680BD00BFD9
:101EF00007232000B0B584B000AF786039607B68FC
:101F00001B0903F00F03FB60FB68013B062B00F28B
:101F1000F68001A252F823F0351F0000FF200000D8
:101F2000FF200000691F0000931F0000E71F000052
:101F3000AB2000003B68002B03D03B68082B00D887
:101F400000BFFFF717FF704B6F4A126822F4E031B1
:101F50003A68013A92030A431A6002F0B9FAB8608B
:101F6000B868FFF7ABFECBE03B68002B04D03B68C2
:101F7000B3F5007F00D800BF3868FFF77FFD3860F9
:101F8000614B614A926822F00F013A680A439A60F5
:101F9000B6E03B68002B04D03B68B3F5007F00D867
:101FA00000BFFFF7E7FE02F0B7FA02463B68B2FB5C
:101FB000F3F4FFF79BFD034620461946FFF7D2FDD9
:101FC0003868FFF75BFD38604F4B4F4A526822F08C
:101FD0000F013A680A435A6002F07AFAB860B868AA
:101FE000FFF76CFE8CE07B68484A93421ED0474A5C
:101FF000934203D8464A934207D055E0454A93425C
:1020000025D0454A93423FD04EE00420FFF732FFEF
:102010003868FFF733FD38603B4B3B4A926E22F045
:10202000F0013A6812010A439A663DE00420FFF786
:1020300021FF3868FFF722FD3860334B324A926E39
:1020400022F470613A6812020A439A662CE03B68F7
:102050000F2B03D93B68802B00D800BF0420FFF76B
:1020600009FF3868FFF70AFD3860274C264B9B6E46
:1020700023F440551020FFF701FD03463A68D31AB8
:102080001B032B43A3660FE00420FFF7F3FE386821
:10209000FFF7F4FC38601C4B1B4A926E22F00301E0
:1020A0003A680A439A6600BF2AE07B681B4A93425B
:1020B00003D01B4A934210D020E04020FFF7DAFE05
:1020C0003868FFF7DBFC38600F4B0F4A126F22F0C5
:1020D00003013A680A431A6710E04020FFF7CAFE7E
:1020E0003868FFF7CBFC3860074B074A126F22F0C5
:1020F00030013A6812010A431A6700BF00E000BFCE
:102100001037BD46B0BD00BF00800C4060261200F5
:10211000601610006000240060062800700714009C
:102120007017160090B587B000AF78600B46FB7053
:1021300000233B617B681B0A03F00F03013B092B63
:1021400049D801A252F823F08D210000932100000C
:1021500071210000D7210000D72100009921000043
:10216000A3210000D7210000D7210000AD210000ED
:102170001B4B7B611B4800F041F80446FFF7B6FC9F
:10218000034620461946FFF7EDFC12E0164B7B6133
:102190000FE0164B7B610CE0154B7B6101233B612B
:1021A00007E0144B7B6110233B6102E0124B7B6123
:1021B00000BF7B681B0B03F01F03FB603B69002B18
:1021C00002D03869FFF756FEFB787869F9681A463D
:1021D000FFF728FC00E000BF1C37BD4690BD00BFE4
:1021E00040800C400043020008800C4044800C40BA
:1021F00058800C4060800C4078800C4090B585B0D1
:1022000000AF78607B6803F47813B3F5A01F00F08B
:10221000AB80B3F5A01F1AD8B3F5402F00F0BF80F4
:10222000B3F5402F08D8B3F5003F3CD0B3F5802F6D
:102230002DD0002B27D0BEE0B3F5801F3CD0B3F5E6
:10224000901F47D0B3F5602F00F0AD80B3E0B3F539
:10225000001F00F0AC80B3F5001F0AD8B3F5C01F13
:1022600025D0B3F5D01F7AD0B3F5B01F00F0898028
:10227000A1E0B3F5181F4ED0B3F5201F62D0B3F51F
:10228000101F35D097E002F047F9F86096E002F0B1
:1022900043F9F8604C4B9B6803F00F03FA6822FA8D
:1022A00003F3FB608AE002F013F9F86086E0474828
:1022B000FFF76AFDF86081E04448FFF765FDF860CC
:1022C000414B9B6E03F0F0031B09FA6822FA03F3FB
:1022D000FB6073E03D48FFF757FDF8603A4B9B6E9B
:1022E00003F470631B0AFA6822FA03F3FB6065E0EB
:1022F0003648FFF749FDF860334B9B6E03F44053BB
:102300001C0B1020FFF7BAFB03462344FA6822FA9D
:1023100003F3FB6052E02D48FFF736FDF8602A4BCF
:102320009B6E03F440531B0BFA6822FA03F3FB6025
:10233000254BDB6F03F007030133FA68B2FBF3F3BD
:10234000FB603BE02148FFF71FFDF8601E4B9B6ED2
:1023500003F00303FA6822FA03F3FB602EE01C4843
:10236000FFF712FDF86029E01948FFF70DFDF8604E
:10237000154B1B6F03F00303FA6822FA03F3FB60AB
:102380001CE01348FFF700FDF8600F4B1B6F03F0D4
:1023900030031B09FA6822FA03F3FB600EE0FFF733
:1023A0006DFCF8600AE0FFF711FCF86006E0FFF74B
:1023B0007BFDF86002E00023FB6000BFFB6818466D
:1023C0001437BD4690BD00BF00800C4002001800CD
:1023D00003001A0080B485B000AF78600123FB735E
:1023E0007B6803F00F03BB60BB68013B062B00F268
:1023F000938001A252F823F0152400004B24000022
:10240000872400001925000019250000C3240000BE
:10241000E5240000454BDB6A03F47053B3F5805F9D
:1024200009D0B3F5005F03D0B3F5006F06D008E024
:102430000223FB7308E00323FB7305E00423FB7313
:1024400002E00523FB7300BF69E0384B9B6A03F091
:102450000303022B06D0032B07D0012B08D1032343
:10246000FB730FE00223FB730CE00623FB7309E010
:102470002E4B9B6A03F48033002B02D00923FB739D
:1024800000E000BF4BE0294B9B6A03F00C03082BD4
:1024900006D00C2B07D0042B08D10323FB730FE0CD
:1024A0000223FB730CE00623FB7309E01F4B9B6ABE
:1024B00003F48013002B02D00923FB7300E000BF5C
:1024C0002DE01A4B1B6803F08053002B03D0B3F1AF
:1024D000805F03D023E00723FB7302E00823FB7334
:1024E00000BF1CE0114BDB6A03F46033B3F5803F9F
:1024F00008D0B3F5003F08D0B3F5004F08D108234A
:10250000FB7308E00223FB7305E00323FB7302E087
:102510000123FB7300BF02E00023FB7300BFFB7BC2
:1025200018461437BD465DF8047B704700800C40A8
:1025300090B589B000AF78600B46FB700323FB6158
:102540000323FB7600233B617B6803F00F03FB60F2
:10255000FB68013B062B00F2348101A252F823F004
:102560007D2500006926000069260000C3270000C1
:10257000C3270000312700005B270000FB78023BE7
:10258000072B00F2228101A252F823F0AD250000B2
:10259000B7250000C12500000B260000CB27000056
:1025A000CB270000CB270000CB2700000423FB61D2
:1025B0000023FB7639E00323FB610123FB7634E043
:1025C0000223FB610223FB76FFF790FA03465C1CB3
:1025D000FFF78CFA034620461946FFF7C3FA02F0CC
:1025E0001BF802467C4B9A4206D97C4B7B4A126808
:1025F00042F060021A6018E0784B784A126822F0C4
:10260000600242F020021A600FE00123FB61032305
:10261000FB76FFF76BFA03465C1CFFF767FA03468D
:1026200020461946FFF79EFA00BFFB7E184601219F
:10263000012200F0F7F8FFF79DFB684BFA695A6238
:102640006748FFF7DBFD0446FFF750FA03462046D4
:102650001946FFF787FA00F051FD01F039FFB86025
:10266000B868FFF72BFBADE0FB78013B082B00F2CD
:10267000AE8001A252F823F09D260000A3260000A0
:10268000B3260000CF270000CF270000C32600009C
:10269000CF270000CF270000E726000000237B6142
:1026A00026E000200121012200F0BCF802237B611A
:1026B0001EE001200121012200F0B4F801237B611A
:1026C00016E001F005FFB860FFF710FA0346B8689E
:1026D0001946FFF747FA434804210122FFF7A2F900
:1026E00003237B6104E000237B6101233B6100BF86
:1026F000FB68022B0DD1394A384B9B6A23F4803397
:1027000023F00303796919433B691B040B4393626C
:1027100058E0324A314B9B6A23F4801323F00C03B8
:102720007969890019433B691B050B43936249E0B2
:10273000FB78072B02D0082B07D049E0274B274A0C
:10274000126822F080521A6006E0244B234A126875
:1027500042F080521A6000BF34E0FB78032B14D0A3
:10276000082B22D0022B00D032E0002001210122D0
:1027700000F058F8194B40225A6200BF174BDB6A31
:1027800003F48033002BF9D01AE00120012101224B
:1027900000F048F8114B60225A6200BF0F4BDB6A11
:1027A00003F40033002BF9D00AE00C4B20225A62CC
:1027B00000BF0A4BDB6A03F40043002BF9D000BFD3
:1027C00000E000BFFFF7ECF902E000BF00E000BF4F
:1027D0002437BD4690BD00BF0048E80100800C4092
:1027E0000043020040800C4080B483B000AF7860AA
:1027F0000B4B9B6D03F00803002B00D00BE07B68B4
:1028000003F007037B60064B054AD26F22F00701F5
:102810007A680A43DA670C37BD465DF8047B704777
:1028200000800C4080B586B000AF13460246FA71B6
:102830000A46BA717B71FB79042B4AD801A252F87F
:1028400023F000BF912800008328000067280000C3
:10285000592800007528000001233B610223FB601A
:1028600001237B611DE004233B610823FB600323FC
:102870007B6116E010233B612023FB6005237B6115
:102880000FE040233B618023FB6007237B6108E06E
:102890004FF480733B614FF40073FB6009237B614D
:1028A00000BFBB79002B0ED00C4B3A691A627B79C2
:1028B000002B0BD000BF0A487969FFF7C9F803461F
:1028C000002BF8D002E0054BFA681A6200F016FC03
:1028D00000E000BF1837BD4680BD00BF00800C403F
:1028E0002C800C4080B483B000AF0346FB71084BD2
:1028F00097F907205209F97901F01F01012000FA28
:1029000001F143F822100C37BD465DF8047B704797
:1029100000E100E080B483B000AF0346FB71094BD7
:1029200097F907205209F97901F01F01012000FAF7
:1029300001F1203243F822100C37BD465DF8047BCC
:10294000704700BF00E100E080B483B000AF0346F1
:10295000FB71094B97F907205209F97901F01F0122
:10296000012000FA01F1603243F822100C37BD4615
:102970005DF8047B704700BF00E100E080B487B0E1
:1029800000AFF860B9607A60FB6803F10473DA00A5
:10299000BB6813449B007B617B697A681A601C37B3
:1029A000BD465DF8047B704780B489B000AF7860A5
:1029B000F970BA707B707B681A013C4B9B681344BA
:1029C000BB61BB78002B02D0BB69FB6105E07B6873
:1029D0001A01364BDB681344FB61BB69DB687B6122
:1029E0007B69002B02D0BA787B691A72FB6A002BD4
:1029F00014D0FB699B6803F040639B0E3B613B690D
:102A0000032B03D1FB69FA6A1A6007E03B693A6B52
:102A10009A40FB6A13441A46FB691A60BB6A002B92
:102A200012D0FB699B689B0F3B613B69032B03D171
:102A3000FB69BA6A5A6007E03B693A6B9A40BB6A25
:102A400013441A46FB695A607B68012202FA03F3B9
:102A5000FB607B78002B03D0144BFA689A6102E08C
:102A6000124BFA68DA61BB78002B03D00F4BFA687F
:102A70005A6302E00D4BFA681A63FB699B6823F402
:102A80007F5323F03703BB603B6B1B01BA681343D2
:102A9000BB60FB78BA681343BB60FB69BA689A6095
:102AA0002437BD465DF8047B704700BF00200C4012
:102AB00080B58AB000AF334B03F580531B68BB6110
:102AC000304B03F580530C331B68BA691340BB616C
:102AD0002C4B9B6B7B61BA697B6913403B62002383
:102AE000FB6149E000237B623BE03B6A03F00103AA
:102AF000002B30D0234B9B683B6101227B6A02FA9A
:102B000003F3FB601F4B03F580530833FA681A6028
:102B10007B6A1B013A691344DB68BB60BB68002B0E
:102B200019D0BB681B7A7B60BB681B7A83F00103FA
:102B3000DAB2BB681A72BB681B68002B0BD0BB688B
:102B40001B68786A7A68002A0CBF00220122D1B281
:102B5000BA68526898473B6A5B083B627B6A0133FC
:102B60007B623B6A002BC0D17B69DA43BB691340AF
:102B70003B62FB690133FB61FB69012BB2DD283746
:102B8000BD4680BD00200C4080B588B004AFF86021
:102B90007B600B46FB721346BB72FA7ABB7A79688C
:102BA0000091B9690191F9690291F8680121FFF773
:102BB000FBFE044BFA68012101FA02F29A62103717
:102BC000BD4680BD00200C4080B584B000AF786069
:102BD00039601F4B9B68FB607B681B01FA681344DC
:102BE0003A689268DA603B681B78002B06D0184B75
:102BF0007A68012101FA02F29A6305E0144B7A68BF
:102C0000012101FA02F2DA63114B3A6851687A68DD
:102C100002F5886243F822103B685B78002B0ED0E7
:102C20000B4B7A68012101FA02F203F58053083355
:102C30001A60084879680122FFF7A0FE04E0054801
:102C400079680022FFF79AFE1037BD4680BD00BFAD
:102C500000200C400C300C4080B487B000AFF8600E
:102C60000B467A60FB72FB7A002B03D0154B9B68F6
:102C70007B6102E0134BDB687B61FB681B017A69B7
:102C800013447B617B681B789A077B689B781B07E2
:102C90001A437B685B789B061A437B689B781B060C
:102CA00013431A467B681B799B041A437B68DB78C5
:102CB0009B031A437B699A601C37BD465DF8047B11
:102CC000704700BF00200C4080B582B000AF786034
:102CD00010480121FFF726FA00F020F80020FFF746
:102CE00033FE0020FFF7FEFD0B4B03F580530C3342
:102CF0004FF000421A60084B7A6852689A60064B9F
:102D00007A681278520142F001025A600837BD46D3
:102D100080BD00BF0003020000200C4080B582B0DF
:102D200000AF0020FFF7F6FD1C4B00225A601B4B42
:102D300040F6FF72DA61194B40F6FF725A62174B88
:102D400040F6FF72DA62154B40F6FF725A63134B7E
:102D500040F6FF72DA63114B0122DA640F4B03F580
:102D600080530C3300221A600C4B03F58053083358
:102D70000B4A1A6000237B6009E0084B7A6802F571
:102D80008862002143F822107B6801337B607B68F6
:102D90000B2BF2DD0837BD4680BD00BF00200C4084
:102DA000FF0F008080B500AF01F092FB80BD00BF37
:102DB00080B400AF034B4AF6E8529A60BD465DF816
:102DC000047B704700600C4080B400AF034B0022CE
:102DD000C3F88420BD465DF8047B704700800C403A
:102DE00080B400AF044B45F60E02C3F88420BD4604
:102DF0005DF8047B704700BF00800C4080B582B056
:102E000000AF384BD3F8843003F001037B60FFF749
:102E1000E7FF00233B60344B1B6803F001033A6873
:102E200013433B60304B1B6803F010033A681343B5
:102E30003B602D4B1B6803F040033A6813433B6033
:102E4000294B1B6803F004033A6813433B60264B8D
:102E50001B6803F480733A6813433B60214B3A6864
:102E60001A62214B1B6803F47053B3F5805F06D0E0
:102E7000B3F5005F0ED0B3F5006F16D020E000BFB1
:102E8000184BDB6A03F08003002BF9D0154B0322AB
:102E90005A6215E000BF134BDB6A03F40073002B8A
:102EA000F9D0104B04225A620AE000BF0D4BDB6AD6
:102EB00003F00803002BF9D00A4B02225A6200BF2C
:102EC000094B1B6803F00103002B02D1054B0222C2
:102ED0001A627B68002B01D0FFF776FF0837BD46EA
:102EE00080BD00BF00800C404001002080B483B052
:102EF00000AF174B1B699BB203F03F039BB21B0251
:102F0000FB80134B9B699BB203F0F0039AB2FB88E2
:102F10001343FB800E4BDB6903F0F0031B099AB2ED
:102F2000FB881343FB80FB88B3F5827F03D3FB88C8
:102F3000B3F5017F01D1012300E0002303F0010379
:102F4000DBB218460C37BD465DF8047B704700BF06
:102F5000D0FF0FE080B586B000AF0346FB711F4B7A
:102F6000DA6A1F4B1A601F4B1E4A126942F00402B4
:102F70001A61FFF7BBFF0346FB75FB7D002B11D0E9
:102F8000194B1A68194B1340FB60174BFA68C3F8CA
:102F90008020154B5B6823F046033B61124B3A6976
:102FA000C3F8842030BFFB7D002B05D00E4BFA68A0
:102FB0001A600D4B3A695A60FB79002B02D0FFF77B
:102FC0001DFF07E0064B1B6803F48063002B01D153
:102FD000FFF7E8FE1837BD4680BD00BF00800C40FB
:102FE0004001002000ED00E000E100E09CF1FD0068
:102FF00080B586B000AF0346FB71274BDA6A274BDA
:103000001A60254BD3F8843003F001037B61FFF78E
:10301000E7FE214B4FF420721A627B69002B01D02E
:10302000FFF7D2FE1E4B1E4A126942F004021A61DB
:10303000FFF75CFF0346FB74FB7C002B11D0194BA0
:103040001A68194B1340BB60164BBA68C3F880204E
:10305000144B5B6823F04603FB60124BFA68C3F81D
:10306000842030BFFB7C002B05D00E4BBA681A6061
:103070000C4BFA685A60FB79002B02D0FFF7BEFEBA
:1030800007E0064B1B6803F48063002B01D1FFF7B8
:1030900089FE1837BD4680BD00800C4040010020ED
:1030A00000ED00E000E100E09CF1FD0080B584B09F
:1030B00000AF114B1B6823F00C0343F00803BB6007
:1030C0000D4B1B6843F00C037B60FFF771FE002380
:1030D000FB6008E0084BBA681A60074B7A681A6010
:1030E000FB680133FB60FB68032BF3DD024BBA681E
:1030F0001A601037BD4680BD00600C4080B400AF40
:10310000034BDA6A034B1A60BD465DF8047B7047D7
:1031100000800C404001002080B483B000AF034623
:103120003960FB71FB79002B0DD0FB79012B0AD0A4
:10313000FB79022B07D0FB79032B04D0FB79042BFE
:1031400001D0FB79052B0948FA793B68012101FA86
:1031500003F319461346DB0013449B00034410336A
:1031600059600C37BD465DF8047B70470060004035
:1031700080B483B000AF03463960FB71FB79002B4C
:103180000DD0FB79012B0AD0FB79022B07D0FB79FC
:10319000032B04D0FB79042B01D0FB79052B0948C4
:1031A000FA793B68012101FA03F319461346DB0063
:1031B00013449B000344103319600C37BD465DF87F
:1031C000047B70470060004090B482B000AF0246BC
:1031D0000B46FA71BB71FB79002B0ED0FB79012BEA
:1031E0000BD0FB79022B08D0FB79032B05D0FB79A0
:1031F000042B02D0FB79052B03D1BB79032B00D81C
:1032000000BF0C48FA790B4CF9790B46DB000B44F4
:103210009B0023441B6823F00301BB791943134629
:10322000DB0013449B00034419600837BD4690BC83
:10323000704700BF0060004090B585B000AFB96036
:103240007B600346FB731346BB73FB7B002B0DD0E7
:10325000FB7B012B0AD0FB7B022B07D0FB7B032BD4
:1032600004D0FB7B042B01D0FB7B052BBB7B002B0D
:103270000DD07B68002B05D0FB7B1846B968FFF7A3
:1032800077FF04E0FB7B1846B968FFF745FFBB6892
:10329000072B1DD82B48FA7B2A4CF97B0B46DB0009
:1032A0000B449B0023445968BB689B000F2404FA1D
:1032B00003F3DB431940BC7BBB689B0004FA03F3B8
:1032C00019431346DB0013449B000344596024E078
:1032D0001C48FA7B1B4CF97B0B46DB000B449B0024
:1032E000234408331968BB6803F18043083B9B0003
:1032F0000F2404FA03F3DB431940BC7BBB6803F1E2
:103300008043083B9B0004FA03F319431346DB0098
:1033100013449B00034408331960BB7B002B0DD181
:103320007B68002B05D0FB7B1846B968FFF720FFB0
:1033300004E0FB7B1846B968FFF7EEFE1437BD4684
:1033400090BD00BF0060004080B487B000AFF8605F
:10335000B9607A60FB6803F10473DA00BB68134458
:103360009B007B617B697A681A601C37BD465DF8FB
:10337000047B704780B485B000AFF860B9607A60B4
:10338000FB681A68BB68DB431A407B681A43FB681A
:103390001A601437BD465DF8047B704780B588B06D
:1033A00000AFF860B9607A60FB707B68002B00D1D9
:1033B0005EE0FB681B6823F44072FB681A60FA68E1
:1033C000FB781B0210464FF440711A46FFF7D2FFFC
:1033D000BB68002B03D12848FEF710FFB8604FF000
:1033E000FF33BB61FB681B6803F00203002B11D0A5
:1033F000FB78012B07D0022B08D0002B00D019E05E
:103400001E4BBB6105E01E4BBB6102E01D4BBB6167
:1034100000BF0FE0FB78012B06D0022B07D0002B5A
:1034200008D1194BBB6105E0184BBB6102E0184B9A
:10343000BB6100BFFB78174AD35C7B617B689B0054
:10344000BA68D21A7B69796801FB03F3B2FBF3F324
:10345000013BFB61FB681B6803F00203002B04D0F7
:10346000FB69002B01D10123FB61FA69FB681A613A
:103470002037BD4680BD00BF40810400401640009B
:10348000C0D8A7008050740180841E004054890079
:10349000002D31013C51000080B582B000AF786052
:1034A00039607A68174B9A4203D07A68164B9A4271
:1034B00000D100BF7B6800225A637B68134A1A63FD
:1034C0007A683B685B78002B01D0002300E0012381
:1034D000104601211A46FFF737FF3B6859683B68E1
:1034E0009A683B681B7B7868FFF758FF7A683B68EF
:1034F0001B78104600211A46FFF726FF0837BD4605
:1035000080BD00BF00A0004000A40040CFFF01002C
:1035100080B489B000AF78607A689D4B9A4203D03E
:103520007A689C4B9A4200D100BF7A68984B9A42C5
:1035300002D1994BBB6108E07A68964B9A4202D15E
:10354000964BBB6101E0FC2300E2BB699B687B6199
:103550007B689B6A3B613B6903F4C063002B14D01A
:103560003B6903F40073002B03D0BB69FD225A7042
:1035700007E03B6903F48063002B02D0BB69FE22A5
:103580005A70BB6909221A70CCE1BB691B78082B01
:1035900000F2C08101A252F823F000BFC135000043
:1035A0001336000099360000EB3600003D3700006E
:1035B000A13700002938000067380000F938000002
:1035C0007B695B8803F01003002B09D07B691B88A3
:1035D0001B0A9BB203F0060343F0F003FB610EE00D
:1035E0007B691B8803F0FE03FB617B695B8803F04A
:1035F0000203002B03D0FB6943F00103FB61BB69AD
:1036000001221A707B68FA695A627B6801225A604B
:1036100088E13B6903F08003002B0CD07B6880229B
:103620001A63BB69FF225A70BB6908221A707B6853
:1036300002225A602FE03B6903F04003002B2AD09E
:103640007B6840221A637B695B8803F01003002BC0
:1036500008D0BB6902221A707B691B88DAB27B68CA
:103660005A6218E07B695B8803F00203002B0ED0DE
:10367000BB6907221A70BB691B797A69DB001344A6
:103680001B89012B07D17B6808225A604AE1BB697C
:1036900005221A7045E145E13B6903F08003002BE8
:1036A0000CD07B6880221A63BB69FF225A70BB6909
:1036B00008221A707B6802225A6015E03B6903F009
:1036C0004003002B10D07B6840221A637B695B8823
:1036D00003F00203002B03D0BB6903221A7020E120
:1036E000BB6905221A701CE11CE17B695B8803F051
:1036F0001003002B09D07B691B881B0A9BB203F0C7
:10370000060343F0F003FB6104E07B691B8803F0D0
:10371000FE03FB617B695B8803F00403002B03D08D
:10372000FB6943F00103FB61BB6904221A707B68EB
:1037300001225A607B68FA695A62F3E03B6903F040
:103740008003002B0CD07B6880221A63BB69FF22A8
:103750005A70BB6908221A707B6802225A6015E011
:103760003B6903F04003002B10D07B6840221A63B2
:103770007B695B8803F00403002B03D0BB6907223D
:103780001A7003E0BB6905221A70CAE0CAE000BFE4
:1037900000A0004000A4004044010020500100208F
:1037A000BB695A88BB691B797969DB000B441B89AB
:1037B0009A4224D3BB6900225A80BB691B7901332A
:1037C000DAB2BB691A717B695B8803F00403002BD2
:1037D00003D0BB6903221A70A3E07B695B8803F006
:1037E0000103002B03D1BB691B79012B06D9BB69EF
:1037F00008221A707B6802225A6093E091E0BB694C
:103800001B797A69DB0013445A68BB695B88591CD1
:1038100088B2B969488013441B781A467B685A629B
:10382000BB6906221A707DE03B6903F08003002B20
:103830000CD07B6880221A63BB69FF225A70BB6977
:1038400008221A707B6802225A600BE03B6903F081
:103850004003002B06D07B6840221A63BB69052217
:103860001A705EE05EE03B6903F02003002B42D05B
:10387000BB691B797A69DB0013441B89FB607B6899
:10388000DB69FB72BB695B881A46FB689A420ED201
:10389000BB691B797A69DB0013445A68BB695B8892
:1038A000591C88B2B96948801344FA7A1A70BB6906
:1038B0005B881A46FB689A420CD3FB68012B02D145
:1038C0007B6808225A60BB6908221A707B68022252
:1038D0005A6010E07B6804225A60FB68012B0AD909
:1038E000BB695B881A46FB68013B9A4203D17B683F
:1038F00008225A6016E015E03B6903F48073002B40
:1039000007D07B684FF480721A63BB6909221A7072
:1039100008E007E0BB69FB225A70BB6909221A70F4
:1039200000E015E6BB691B78092B0BD17B680022F0
:103930005A63BB695B785BB2012B05D1BB6900227E
:103940005A7001E0012301E0BB695B785BB2184665
:103950002437BD465DF8047B704700BF80B584B056
:1039600000AF786039607A68304B9A4203D07A6849
:103970002F4B9A4200D100BF7A682C4B9A4202D159
:103980002C4BFB6008E07A68294B9A4202D12A4B03
:10399000FB6001E0FC2343E07B689B6803F00103CC
:1039A000002B02D07B6820225A603B685B8803F0C2
:1039B0000203002B03D03B681B89002B09D03B6816
:1039C0005B8803F00403002B05D03B681B8A002BA7
:1039D00001D1FC2324E0FB6800221A70FB6801225D
:1039E0005A70FB6800225A80FB6800221A71FB683B
:1039F0003A689A607B68C0225A607B689B6A03F0D1
:103A00002003002B01D07B68DB697B680B4A1A63BB
:103A10007B684FF4FC625A637868FFF779FD0346D0
:103A20005BB218461037BD4680BD00BF00A0004005
:103A300000A400404401002050010020CFFF0100FD
:103A400080B483B000AF0346FB71FB79002B06D036
:103A5000084B084A126842F001021A6005E0054B63
:103A6000044A126822F001021A600C37BD465DF864
:103A7000047B704700A0084080B487B000AFF860B6
:103A8000B9607A60FB6803F10473DA00BB68134421
:103A90009B007B617B697A681A601C37BD465DF8C4
:103AA000047B704780B584B000AF7860184B5B68CA
:103AB000FB600020FFF7C4FFFB6823F4830323F0BF
:103AC0001F03FB607B685B68FA681343FB607B68DD
:103AD0001B7AFA681343FB607B685B7AFA681343CE
:103AE000FB607B68DB68FA681343FB607B681B8ABA
:103AF000FA681343FB60064BFA685A607B681B78D0
:103B0000002B02D00120FFF79BFF1037BD4680BD80
:103B100000A0084080B485B000AF78600D4B5B68B2
:103B2000FB60FB6823F48033FB607B68002B08D0CC
:103B3000B3F5803F00D005E0FB6843F48033FB60C1
:103B400000E000BF034BFA685A601437BD465DF8C9
:103B5000047B704700A0084080B483B000AF0246E9
:103B60000B46FA807B717B79002B06D0094B094A02
:103B70009168FA880A439A6006E0064B054A916804
:103B8000FA88D2430A409A600C37BD465DF8047B40
:103B9000704700BF00A0084080B584B000AFF86057
:103BA000B9601346FB71FB68072B00F2C38001A2CA
:103BB00052F823F0D53B0000013C00002D3C0000F2
:103BC000593C0000853C0000B13C0000DD3C000099
:103BD000093D0000BB681F2B07DCBA68FB7957481A
:103BE00011461A46FFF748FFA5E0BB68203BBB60C3
:103BF000BA68FB79524811461A46FFF73DFF9AE032
:103C0000BB681F2B07DCBA68FB794E4811461A4681
:103C1000FFF732FF8FE0BB68203BBB60BA68FB79DF
:103C2000494811461A46FFF727FF84E0BB681F2B5F
:103C300007DCBA68FB79454811461A46FFF71CFFB6
:103C400079E0BB68203BBB60BA68FB79404811460D
:103C50001A46FFF711FF6EE0BB681F2B07DCBA683E
:103C6000FB793C4811461A46FFF706FF63E0BB6844
:103C7000203BBB60BA68FB79374811461A46FFF70C
:103C8000FBFE58E0BB681F2B07DCBA68FB793348A2
:103C900011461A46FFF7F0FE4DE0BB68203BBB60C3
:103CA000BA68FB792E4811461A46FFF7E5FE42E056
:103CB000BB681F2B07DCBA68FB792A4811461A46F5
:103CC000FFF7DAFE37E0BB68203BBB60BA68FB79E0
:103CD000254811461A46FFF7CFFE2CE0BB681F2B84
:103CE00007DCBA68FB79214811461A46FFF7C4FE83
:103CF00021E0BB68203BBB60BA68FB791C481146D9
:103D00001A46FFF7B9FE16E0BB681F2B07DCBA683E
:103D1000FB79184811461A46FFF7AEFE0BE0BB6868
:103D2000203BBB60BA68FB79134811461A46FFF77F
:103D3000A3FE00E000BF1037BD4680BD40A0084094
:103D400050A0084044A0084054A0084048A00840A3
:103D500058A008404CA008405CA00840CCA00840F7
:103D6000B4A00840D0A00840B8A00840D4A00840A3
:103D7000BCA00840D8A00840C0A0084080B487B0CC
:103D800000AFF860B9607A60FB68072B00F2AC8086
:103D900001A252F823F000BFB93D0000DD3D000054
:103DA000013E0000253E0000493E0000713E00003B
:103DB000993E0000C13E00004E4B1B6C7B61BB680E
:103DC000DB437A6913407B61BA687B6813407A6988
:103DD00013437B61474B7A691A6486E0454B5B6C01
:103DE0007B61BB68DB437A6913407B61BA687B689F
:103DF00013407A6913437B613E4B7A695A6474E0DD
:103E00003C4B9B6C7B61BB68DB437A6913407B61F5
:103E1000BA687B6813407A6913437B61354B7A69D2
:103E20009A6462E0334BDB6C7B61BB68DB437A698D
:103E300013407B61BA687B6813407A6913437B61E6
:103E40002C4B7A69DA6450E02A4BD3F8CC307B6192
:103E5000BB68DB437A6913407B61BA687B681340B7
:103E60007A6913437B61234B7A69C3F8CC203CE029
:103E7000204BD3F8D0307B61BB68DB437A691340B9
:103E80007B61BA687B6813407A6913437B61194B85
:103E90007A69C3F8D02028E0164BD3F8D4307B6180
:103EA000BB68DB437A6913407B61BA687B68134067
:103EB0007A6913437B610F4B7A69C3F8D42014E00D
:103EC0000C4BD3F8D8307B61BB68DB437A69134075
:103ED0007B61BA687B6813407A6913437B61054B49
:103EE0007A69C3F8D82000E000BF1C37BD465DF8F2
:103EF000047B704700A0084080B487B000AFF86032
:103F0000B9607A60FB68072B00F2AC8001A252F81E
:103F100023F000BF353F0000593F00007D3F000007
:103F2000A13F0000C53F0000ED3F0000154000002C
:103F30003D4000004E4B1B6D7B61BB68DB437A69E3
:103F400013407B61BA687B6813407A6913437B61D5
:103F5000474B7A691A6586E0454B5B6D7B61BB68B0
:103F6000DB437A6913407B61BA687B6813407A69E6
:103F700013437B613E4B7A695A6574E03C4B9B6D01
:103F80007B61BB68DB437A6913407B61BA687B68FD
:103F900013407A6913437B61354B7A699A6562E015
:103FA000334BDB6D7B61BB68DB437A6913407B611C
:103FB000BA687B6813407A6913437B612C4B7A693A
:103FC000DA6550E02A4BD3F8B4307B61BB68DB4341
:103FD0007A6913407B61BA687B6813407A6913433E
:103FE0007B61234B7A69C3F8B4203CE0204BD3F8C3
:103FF000B8307B61BB68DB437A6913407B61BA6888
:104000007B6813407A6913437B61194B7A69C3F863
:10401000B82028E0164BD3F8BC307B61BB68DB438B
:104020007A6913407B61BA687B6813407A691343ED
:104030007B610F4B7A69C3F8BC2014E00C4BD3F8BA
:10404000C0307B61BB68DB437A6913407B61BA682F
:104050007B6813407A6913437B61054B7A69C3F827
:10406000C02000E000BF1C37BD465DF8047B7047F0
:1040700000A0084080B483B000AF7860064B064AC9
:10408000526822F4E0117A680A435A600C37BD4640
:104090005DF8047B704700BF00A0084080B487B083
:1040A00000AFF860B9607A60FA68114B9A4208D1A3
:1040B000BB68012B05D87B681B0C1B04002B00D1AF
:1040C00000BFBB68002B02D0012B04D00AE0FB68C4
:1040D00010337B6103E0FB6814337B6100BF7B69B5
:1040E0007A681A601C37BD465DF8047B704700BFD4
:1040F0000020084080B485B000AF786039600023AC
:10410000FB603B681B7883F00103DBB2002B08D017
:104110007B689B6803F00103002B02D07B680222BE
:104120005A603B685B78002B03D0FB6843F48053F4
:10413000FB603B689B78002B03D0FB6843F48063F3
:10414000FB603B68DB78002B03D0FB6843F4006323
:10415000FB603B681B79002B03D0FB6843F40073C2
:10416000FB603B685B79002B03D0FB6843F48073F2
:10417000FB603B689B79002B03D0FB6843F0400356
:10418000FB603B68DB79002B03D0FB6843F08003C6
:10419000FB603B681B7A9B00FA681343FB603B683B
:1041A0005B7A1B01FA681343FB603B689B7AFA68F1
:1041B0001343FB607B68FA681A603B681B78002B2E
:1041C00008D07B689B6803F00103002B02D17B6859
:1041D00001225A601437BD465DF8047B704700BF6A
:1041E00080B483B000AF786039607B681B6C03F0EB
:1041F0000103002B00D006E000BF7B685A6C3B68CF
:104200001340002BF9D10C37BD465DF8047B704795
:1042100080B586B000AFF860B9607A60BB68002BEB
:1042200012D1FA68164B9A4202D1164B7B6107E015
:10423000FA68154B9A4202D1144B7B6100E01BE0F7
:104240007869FDF7DBFFB860BB685A017B68B2FB99
:10425000F3F33B613B69203B3B613B69DB003B6126
:104260003A6947F6F87313403B61F8680421FFF799
:10427000B7FFFB683A69DA601837BD4680BD00BFFA
:1042800000400840700714000044084070171600F2
:1042900080B584B000AF78600B46FB707A68104B35
:1042A0009A4203D07A680F4B9A4200D100BFFB7844
:1042B000DB43FB60FB6803F00503FB60FB685B000E
:1042C000FB60FB78FA681343FB6078680221FFF714
:1042D00087FF7B68FA685A601037BD4680BD00BF13
:1042E000004008400044084080B483B000AF7860CC
:1042F0000B46FB70FB78002B08D000BF7B685B6C23
:10430000002BFBD17B6801221A6402E07B6800224B
:104310001A640C37BD465DF8047B704780B582B0E7
:1043200000AF786039607A681B4B9A4203D07A6894
:104330001A4B9A4200D100BF78680221FFF750FF64
:104340007B680A225A6078680121FFF7CDFF7B68FD
:104350001B6823F01C023B681B7B1A433B685B7B9A
:104360001A433B689B7B1A437B681A603B685A6818
:104370003B689B68786811461A46FFF749FF3B681F
:104380001B781A467B685A6078680021FFF7ACFFFB
:104390000837BD4680BD00BF0040084000440840CB
:1043A00080B582B000AF78607A68174B9A4203D02C
:1043B0007A68164B9A4200D100BF78680121FFF756
:1043C00093FF7B68EA225A607B6800221A607B6850
:1043D0000022DA607B6800221A617B6800225A6141
:1043E0007B6800229A637B6840F2F9725A637B68AB
:1043F0000022DA637B6800225A6578680021FFF7A3
:1044000073FF0837BD4680BD0040084000440840A7
:1044100080B485B000AF7860194B5B69DBB203F004
:104420000F03DBB29B00FB73154B1B6903F0C0034A
:104430009B09DAB2FB7B1343FB737B68FA7B9A70B0
:104440000F4B1B69DBB203F03F03DAB27B685A7093
:104450000B4B9B69DBB223F00F03FB73084BDB694B
:1044600003F0F0031B09DAB2FB7B1343FB737B6899
:10447000FA7B1A701437BD465DF8047B704700BFA5
:10448000D0FF0FE0064880470649074A074B9A428B
:10449000BEBF51F8040B42F8040BF8E7FBF74AFEE5
:1044A000314600005451000000000020940000201C
:1044B000FEE700BF80B400AF044BDB6C1B0EDBB229
:1044C0001846BD465DF8047B704700BFB081E00F21
:1044D00080B582B000AF00F01FF87860074B5B68D2
:1044E00003F00F037A6822FA03F37B60044B7A68C7
:1044F0001A607B6818460837BD4680BD00800C40B6
:104500003408002080B400AF024B1846BD465DF869
:10451000047B7047006CDC0280B582B000AF334B87
:10452000DB6A03F47053B3F5805F0AD0B3F5005F24
:1045300003D0B3F5006F08D00BE02D4B1B687B60F8
:1045400047E04FF400437B6043E02A4B1B687B60ED
:104550003FE0264BDB6803F4E063B3F5007F1BD03C
:10456000B3F5007F05D8002B24D0B3F5807F16D09B
:104570002BE0B3F5806F09D0B3F5A06F03D0B3F58E
:10458000407F06D021E01C4B7B6021E01B4B7B6011
:104590001EE01B4B7B601BE01A4B7B6018E0FFF7B3
:1045A00089FF0346122B02D9174B7B6010E0174B93
:1045B0007B600DE0FFF77EFF0346122B02D9144B00
:1045C0007B6005E0134B7B6002E000237B6000BF53
:1045D00000BF064B1B6803F4E0339B0B01337A6882
:1045E000B2FBF3F318460837BD4680BD00800C408F
:1045F000200000201C000020003FAB01406F400164
:10460000809FD500C0D8A70040B56400C0CF6A0025
:10461000804F120040420F0080B400AF034B1B6874
:104620001846BD465DF8047B704700BF1C000020A3
:1046300080B400AFBD465DF8047B704780B400AF26
:104640004FF400431846BD465DF8047B704700BF39
:1046500080B400AF4FF47A731846BD465DF8047B12
:10466000704700BF80B400AF034B1B681846BD46BF
:104670005DF8047B704700BF2000002080F0004000
:1046800002E000BF81F0004142001FBF5FEA41032A
:1046900092EA030F7FEA226C7FEA236C6AD04FEA2A
:1046A0001262D2EB1363C1BFD2184140484041406F
:1046B000B8BF5B42192B88BF704710F0004F40F421
:1046C000000020F07F4018BF404211F0004F41F43D
:1046D000000121F07F4118BF494292EA030F3FD009
:1046E000A2F1010241FA03FC10EB0C00C3F120031C
:1046F00001FA03F100F0004302D5494260EB4000AB
:10470000B0F5000F13D3B0F1807F06D340084FEA15
:10471000310102F10102FE2A51D2B1F1004F40EB0A
:10472000C25008BF20F0010040EA03007047490072
:1047300040EB000010F4000FA2F10102EDD1B0FA3D
:1047400080FCACF1080CB2EB0C0200FA0CF0AABF32
:1047500000EBC25052421843BCBFD04018437047D0
:1047600092F0000F81F4000106BF80F400000132D6
:10477000013BB5E74FEA41037FEA226C18BF7FEAAD
:10478000236C21D092EA030F04D092F0000F08BFEF
:104790000846704790EA010F1CBF0020704712F0D6
:1047A0007F4F04D1400028BF40F00040704712F115
:1047B00000723CBF00F50000704700F0004343F07A
:1047C000FE4040F4000070477FEA226216BF0846B0
:1047D0007FEA23630146420206BF5FEA412390EA73
:1047E000010F40F4800070474FF0000304E000BF69
:1047F00010F0004348BF40425FEA000C08BF70471A
:1048000043F0964301464FF000001CE050EA0102DD
:1048100008BF70474FF000030AE000BF50EA0102F2
:1048200008BF704711F0004302D5404261EB4101DF
:104830005FEA010C02BF84460146002043F0B64304
:1048400008BFA3F18053A3F50003BCFA8CF2083A29
:10485000A3EBC25310DB01FA02FC634400FA02FC32
:10486000C2F12002BCF1004F20FA02F243EB020039
:1048700008BF20F00100704702F1200201FA02FC9B
:10488000C2F1200250EA4C0021FA02F243EB02008E
:1048900008BF20EADC7070474FF0FF0C1CEAD052D2
:1048A0001EBF1CEAD15392EA0C0F93EA0C0F6FD093
:1048B0001A4480EA010C400218BF5FEA41211ED071
:1048C0004FF0006343EA501043EA5111A0FB01315D
:1048D0000CF00040B1F5000F3EBF490041EAD37132
:1048E0005B0040EA010062F17F02FD2A1DD8B3F1AE
:1048F000004F40EBC25008BF20F00100704790F01D
:10490000000F0CF0004C08BF49024CEA502040EA6E
:1049100051207F3AC2BFD2F1FF0340EAC250704734
:1049200040F400004FF00003013A5DDC12F1190F72
:10493000DCBF00F000407047C2F10002410021FAE4
:1049400002F1C2F1200200FA02FC5FEA310040F1FC
:10495000000053EA4C0308BF20EADC70704792F075
:10496000000F00F0004C02BF400010F4000F013AAD
:10497000F9D040EA0C0093F0000F01F0004C02BFA8
:10498000490011F4000F013BF9D041EA0C018FE717
:104990000CEAD15392EA0C0F18BF93EA0C0F0AD01D
:1049A00030F0004C18BF31F0004CD8D180EA010043
:1049B00000F00040704790F0000F17BF90F0004FDC
:1049C000084691F0000F91F0004F14D092EA0C0FBE
:1049D00001D142020FD193EA0C0F03D14B0218BF51
:1049E000084608D180EA010000F0004040F0FE4097
:1049F00040F40000704740F0FE4040F44000704733
:104A00004FF0FF0C1CEAD0521EBF1CEAD15392EAB1
:104A10000C0F93EA0C0F69D0A2EB030280EA010CA1
:104A200049024FEA402037D04FF0805343EA11113A
:104A300043EA10130CF000408B4238BF5B0042F198
:104A40007D024FF4000C8B4224BF5B1A40EA0C003D
:104A5000B3EB510F24BFA3EB510340EA5C00B3EB6F
:104A6000910F24BFA3EB910340EA9C00B3EBD10F5D
:104A700024BFA3EBD10340EADC001B0118BF5FEAAF
:104A80001C1CE0D1FD2A3FF650AF8B4240EBC250D8
:104A900008BF20F0010070470CF0004C4CEA502099
:104AA0007F32C2BFD2F1FF0340EAC250704740F4E8
:104AB00000004FF00003013A37E792F0000F00F0DA
:104AC000004C02BF400010F4000F013AF9D040EA58
:104AD0000C0093F0000F01F0004C02BF490011F4EC
:104AE000000F013BF9D041EA0C0195E70CEAD153E4
:104AF00092EA0C0F08D142027FF47DAF93EA0C0FCB
:104B00007FF470AF084676E793EA0C0F04D14B02AE
:104B10003FF44CAF08466EE730F0004C18BF31F060
:104B2000004CCAD130F000427FF45CAF31F000435A
:104B30007FF43CAF5FE700BF4FF0FF3C06E000BFF3
:104B40004FF0010C02E000BF4FF0010C4DF804CD16
:104B50004FEA40024FEA41037FEA226C18BF7FEA26
:104B6000236C11D001B052EA530C18BF90EA010F28
:104B700058BFB2EB030088BFC81738BF6FEAE170B7
:104B800018BF40F0010070477FEA226C02D15FEA53
:104B9000402C05D17FEA236CE4D15FEA412CE1D0BF
:104BA0005DF8040B704700BF844608466146FFE786
:104BB0000FB5FFF7C9FF002848BF10F1000F0FBD68
:104BC0004DF808EDFFF7F4FF0CBF012000205DF861
:104BD00008FB00BF4DF808EDFFF7EAFF34BF0120E6
:104BE00000205DF808FB00BF4DF808EDFFF7E0FF7F
:104BF00094BF012000205DF808FB00BF4DF808EDD0
:104C0000FFF7D2FF94BF012000205DF808FB00BF32
:104C10004DF808EDFFF7C8FF34BF012000205DF814
:104C200008FB00BF4FEA4002B2F1FE4F0FD34FF036
:104C30009E03B3EB12620DD94FEA002343F0004309
:104C400010F0004F23FA02F018BF404270474FF0B7
:104C50000000704712F1610F01D1420205D110F03E
:104C6000004008BF6FF0004070474FF000007047F1
:104C700008B5074B044613B10021AFF30080054B84
:104C80001868836A03B19847204600F0CBF800BF4C
:104C9000000000004451000070B50E4B0E4D002482
:104CA000ED1AAD101E46AC4204D056F824209047B1
:104CB0000134F8E700F0B8F8084D094B0024ED1A6C
:104CC000AD101E46AC4204D056F824209047013463
:104CD000F8E770BD88000020880000208C000020CC
:104CE00088000020024B0146186800F015B800BF8C
:104CF0008400002010B50023934203D0CC5CC45440
:104D00000133F9E710BD02440346934202D003F891
:104D1000011BFAE77047000070B5CD1C25F00305B4
:104D200008350C2D38BF0C25002D06463FDB8D4283
:104D30003DD3214B1C6818462146A1B10B685B1B73
:104D40000ED40B2B03D90B60CC18CD501FE08C4236
:104D500002D1626802601AE04B6863600C4616E09C
:104D60000C464968E9E7154C23681BB9304600F04A
:104D700027F820602946304600F022F8431C0146FF
:104D800015D0C41C24F0030484420AD1256004F128
:104D90000B00231D20F00700C31A0BD05A42E2502B
:104DA00070BD3046611A00F00BF80130EED10C23D3
:104DB0003360002070BD00BF64010020600100204E
:104DC00038B5064C002305460846236000F010F86D
:104DD000431C02D1236803B12B6038BD3808002082
:104DE000034613F8012B002AFBD1181A013870472B
:104DF000094A136863B118446946884202D81060B2
:104E000018467047054B0C221A604FF0FF30704770
:104E1000034B1360EFE700BF680100203808002053
:104E200040080020FEE700BFF8B500BFF8BC08BC92
:104E30009E467047F8B500BFF8BC08BC9E46704758
:104E40000001000000000000010107050001000052
:104E5000020000000100000001010000000000004D
:104E600060670100000000004C45554152540000AD
:104E700001010507070304020302040605060D0EDF
:104E80000E0E0D0D0D0D0E0E0E0E0D0D0101050772
:104E9000070304020302040605060F1010100F0F8B
:104EA0000F0F101010100F0F010105070703040268
:104EB0000302040605061112121211111111121229
:104EC000121211110101050707030402030204066F
:104ED0000506131C1C1C131313131C1C1C1C13137E
:104EE00000010507060203010302040604051D1E56
:104EF0001E1E1D1D1D1D1E1E1E1E1D1D0001050743
:104F0000060203010302040604051F2020201F1FC0
:104F10001F1F202020201F1F010105070703040277
:104F20000302040605062122222221212121222218
:104F30002222212107050201030604232323232320
:104F40002323070502010306042424242424242403
:104F50000705020103060425252525252525070526
:104F6000020103060426262626262626000107021D
:104F70000627272727270000000000000000131243
:104F800011100F0E0D0C0000000021252426010138
:104F90000304040203020D0E0D0D0E0D0E0E010191
:104FA0000304040203020F100F0F100F1010010171
:104FB0000304040203021112111112111212010151
:104FC000030404020302131C13131C131C1C000112
:104FD0000203040103021D1E1D1D1E1D1E1E0001D5
:104FE0000203040103021F201F1F201F20200101B4
:104FF0000304040203022122212122212222050787
:105000000704040605060E0E0D0D0E0E0D0D050708
:1050100007040406050610100F0F10100F0F0507E8
:1050200007040406050612121111121211110507C8
:105030000704040605061C1C13131C1C1313050788
:105040000603040604051E1E1D1D1E1E1D1D05074C
:1050500006030406040520201F1F20201F1F05072C
:105060000704040605062222212122222121000014
:105070000000001180020000000002060000200075
:1050800039000F00000040150020400400100022ED
:105090003F0006005B044F0466046D047D040700B6
:1050A0007F046F0400000000000A00008020000060
:1050B000FFFF7704790A3900B020790071007D0480
:1050C000760406000E00700A3800B602B6083F00EB
:1050D00073043F08730C6D0401113E003022362822
:1050E000802A6E040922390080080F0001000800A0
:1050F000000158107C0458005E04582071040C0C08
:10510000740404000E00700C3800541454045C0441
:10511000730467045004080C78001C001020142845
:10512000802A0C0848200000010000000300400015
:105130000C00000000000000000000000809110839
:0C514000430000002400002000000000DC
:08514C00E8AFFF7F0100000045
:105154000000A0410001000000000000010107055B
:10516400000100000200000001000000006CDC02ED
:1051740000800000000000000000000000000000AB
:10518400000000000000000000000000000000001B
:10519400000000004051000000000000000000007A
:1051A40000000000000000000000000000000000FB
:1051B40000000000000000000000000000000000EB
:1051C40000000000000000000000000000000000DB
:1051D400000000002400002005010000E1000000A0
:0451E40000000000C7
:040000030000448530
:00000001FF
