S013000073657269616C5F636861742E7372656392
S3151000800010B5184B184A9A4203D0184B154A9A4283
S3151000801004D3174B174A9A4210D31EE0164B134A35
S315100080200332D21A92080132920000230D480E49EB
S31510008030CC58C45004339342FAD1EAE70F4B0C499B
S315100080400331C91A8908013189000023094C00201F
S315100080501A19106004338B42FAD1094B9847094B11
S31510008060984710BDE4520110E452011064530110F8
S315100080702885011064530110E8520110685301104D
S315100080806D300110FDBC001010B5064C2378002B86
S3151000809007D1054B002B02D0044800E000BF012396
S315100080A0237010BD6453011000000000E45201104B
S315100080B0084B10B5002B03D00749084800E000BF55
S315100080C007480368002B00D110BD064B002BFBD0D0
S315100080D09847F9E70000000068530110E4520110B8
S315100080E0E452011000000000F0B5474680B482B09B
S315100080F080231B013A4AD45C00260F231C400194AE
S31510008100384B98460125019A002100E019005208C3
S315100081104B1CDBB2002AF9D189004346C8580378B4
S315100081201B02314A9C58E1B2304A9A588262FF22A9
S315100081302240154203D00026252286542FE09707A9
S3151000814004D51026252286542E0028E0570704D57C
S315100081501026252286540E3E21E0170704D5102638
S31510008160252286540D3E1AE0D70604D51026252260
S3151000817086540C3E13E0970604D510262522865405
S315100081800B3E0CE0520604D51026252286540A3ED4
S3151000819005E0220603D5102625228654093E00291D
S315100081A00ED013492A00B2405A502423C35C3341DF
S315100081B01D4205D0B300C3185B68002B00D098474A
S315100081C02B00B3409C4363B2002B9CD18021090243
S315100081D08133FF33074AD15002B004BC9046F0BD3C
S315100081E00020004080530110AC2000405020004079
S315100081F0A420004000E100E001220270427082706B
S315100082000023C370037143718371C3710372427289
S315100082108272C272037343738373C373037443749A
S315100082208374C3747047C04610B52523C35CDBB294
S31510008230052B42D0C26A002A07D00323D4689C4378
S3151000824023000324002B1FD12DE0C16203781B02EB
S315100082501B4A944663440A681A6003781B02194A3B
S31510008260944663444A681A608A6803781B02164962
S315100082708C4663441A6003781B02144A944663447E
S3151000828003221A60002318E0D268D368A343FBD1F7
S31510008290D1600323CA689A430023002A0DD0033302
S315100082A0CB60002309E003781B0208488446634428
S315100082B003200C0084431C60EAE7180010BDC0467A
S315100082C00020004004200040082000400C20004000
S315100082D082B002002523C35CD8B2052827D0D36A02
S315100082E09B681720002B22D013781B02114959586E
S315100082F001910198104958502423D35C0193019998
S3151000830013781B020D488446634419600521252302
S31510008310D15413781B020A498C4663440121196013
S3151000832013781B02074A944663441960002002B072
S315100083307047C046AC200040A4200040A820004052
S315100083404020004044200040F8B504000D00624B68
S315100083501B78002B12D14320604B98476049CC22E2
S315100083608858604B03408020400503438B505E497C
S315100083701F205E4B98470122574B1A70564B5A686E
S31510008380D30700D5A2E002E011420ED100E000238F
S31510008390514A50680121994001435160117A0139BF
S315100083A011721420FF2B07D194E052080133DBB26F
S315100083B0052BE9D114208DE023701B024C4A9446FC
S315100083C063442A787F263240A978C9070A43697818
S315100083D00904FC20800301400A431A6023781B021B
S315100083E0444A944663446A7A3240E97AC9070A4392
S315100083F0A97A090408401043186023781B023E4AE4
S3151000840094466344EA7C1207C02189050A40A97C78
S3151000841009040A431A6023781B02384A94466344B7
S315100084202F793F02E021C9003A000A402E7B36041C
S31510008430F8204003064032431700E8781F22024016
S315100084403E0016436A7B1206E020C0040240324307
S315100084501A60207800022A4B9C466044AB790726A6
S3151000846033406E790822B2401343EE798022B2402F
S315100084701343AE7B80221201B24013432E7C80221E
S315100084801202B24013431E002A7A120170231A40B8
S3151000849033001343EA7B120211400B43697C090334
S315100084A0E022D20111400B430360231D2100243129
S315100084B0002204C38B42FCD100232422A354E3627E
S315100084C023789B000F4A9C50002003E0520801239A
S315100084D0012159E7F8BDC046E4520110958C0010F1
S315100084E000B00040FFFFFFE0E9800010FD90001093
S315100084F0102000401420004018200040202000408A
S315100085003828004080530110002303700122427066
S315100085108370C3707047C04670B51723012800D802
S31510008520C8E0072809D8644D6A6C103B03409B00CD
S3151000853007249C40A2436A6429E00F2809D85E4D9F
S31510008540AA6C072303409B0007249C40A243AA64FD
S315100085501DE0172809D8584DEA6C072303409B00E5
S3151000856007249C40A243EA6411E003002C3B032B32
S315100085700DD8524D8224E4002A5D120701269E4032
S31510008580120F2B5DB2430F26B34313432B55030033
S315100085901D3B022B29D84B78012B08D1474D2B7D3B
S315100085A01F24241A0122A24093432B7508E0434C42
S315100085B0257D1F22121A012393402B43DBB223750C
S315100085C0CA780023002A75D03C490C881F22101A3D
S315100085D080000133834023439BB20B80384A1178C5
S315100085E002230B431370002364E00A78002A40D15B
S315100085F00F2808D8012383409BB2324A9382002366
S315100086001F2857D812E01F2807D80F22024001232F
S3151000861093409BB22C4A938208E00F2318400E3BDE
S3151000862083409BB2294A9382002343E04B78012B67
S315100086300CD0002B02D0022B10D03AE01E490A6D46
S315100086400123834013430B65002333E01A490B6D56
S315100086500122824093430B6500232BE0164B596D84
S315100086600122824011435965196D91431965002302
S3151000867020E00023012A1DD10F2806D8013383409C
S315100086809BB2104A1382002314E01F2808D80F2328
S3151000869018400E3B83409BB20B4A1382002309E01D
S315100086A00F2318400E3B83409BB2084A13820023C7
S315100086B000E01723180070BD00B0004000F0004025
S315100086C000E0004000000140001001400030014071
S315100086D010B50F2810D8002907D01D4A91880123FC
S315100086E083400B439BB2938031E019498B8801225A
S315100086F0824093438B802AE01F2814D8002909D082
S3151000870014498C880F2210400123834023439BB2C7
S315100087108B801CE00F498B880F2210400E3A824046
S3151000872093438B8013E0002909D00B498C880F22C4
S3151000873010400123834023439BB28B8007E00649F8
S315100087408B880F2210400E3A824093438B8010BDC7
S3151000875000000140001001400030014070B50D0AC4
S31510008760FF231940072833D84E4A546CF83B034070
S315100087709B0007269E40B4435464546C0E009E40E2
S31510008780330023435364012900D08AE003280FD80D
S315100087901100D02252008C5803231840C0003C33DD
S315100087A083409C438C508B5885401D438D5078E0F8
S315100087B03C49D22252008C5803231840C0003C3347
S315100087C083409C438C508B5885401D438D5068E0E8
S315100087D00F2832D8334A946C072303409B00072690
S315100087E09E40B4439464946C0E009E403300234321
S315100087F09364012955D10B280FD81100D4225200A9
S315100088008C5803231840C0003C3383409C438C5043
S315100088108B5885401D438D5043E02249D622520085
S315100088208C5803231840C0003C3383409C438C5023
S315100088308B5885401D438D5033E0172831D8194A7F
S31510008840D46C072303409B0007269E40B443D46490
S31510008850D46C0E009E4033002343D364012920D1EB
S3151000886013280FD81100D82252008C580323184011
S31510008870C0003C3383409C438C508B5885401D432D
S315100088808D500EE0074ADA235B00D15803242040AE
S31510008890C0003C348440A143D150D15885400D438B
S315100088A0D55070BD00B0004001280DD0002802D070
S315100088B002281CD02EE0184A90690C2303439361BA
S315100088C0164A174B1A601AE0134B9869082202438E
S315100088D09A619A69042082439A61124A53688020E9
S315100088E0000303435360104A0D4B1A6007E00A4A0F
S315100088F093690C2083439361084A094B1A60064B0F
S315100089009A69032082439A619A69014011439961D9
S31510008910002000E01720704700B0004080BA8C019C
S31510008920386E011000F0004080841E00014B18685C
S315100089307047C046386E011000B5352800D9A2E13F
S315100089408000D24B1B589F46D14AD16802230B4355
S31510008950D360002098E1CE4AD16804230B43D3603C
S31510008960002091E1CA4AD16808230B43D360002046
S315100089708AE1C74AD16810230B43D360002083E1F4
S31510008980C34AD16820230B43D36000207CE1C04A40
S31510008990D16880230B43D360002075E1BC4AD368AD
S315100089A0802149000B43D36000206DE1B84AD3689B
S315100089B0802109010B43D360002065E1B44AD368D6
S315100089C0802149010B43D36000205DE1B04AD36892
S315100089D0802189010B43D360002055E1AC4AD3684E
S315100089E08021C9010B43D36000204DE1A84AD3680A
S315100089F0802109020B43D360002045E1A44AD368C5
S31510008A00802149020B43D36000203DE1A04AD36880
S31510008A10802189020B43D360002035E19C4AD3683C
S31510008A208021C9020B43D36000202DE1984AD368F8
S31510008A30802109030B43D360002025E1944AD368B3
S31510008A40802149030B43D36000201DE1904AD3686F
S31510008A50802189030B43D360002015E18C4AD3682B
S31510008A608021C9030B43D36000200DE1884AD368E7
S31510008A70802109040B43D360002005E1844AD368A2
S31510008A80802149040B43D3600020FDE0804AD3685F
S31510008A90802189040B43D3600020F5E07C4AD3681B
S31510008AA08021C9040B43D3600020EDE0784AD368D7
S31510008AB0802109050B43D3600020E5E0744AD36892
S31510008AC0802149050B43D3600020DDE0704AD3684E
S31510008AD0802189050B43D3600020D5E06C4AD3680A
S31510008AE08021C9050B43D3600020CDE0684A116987
S31510008AF001230B4313610020C6E0654A1169022366
S31510008B000B4313610020BFE0614A116904230B4334
S31510008B1013610020B8E05E4A116908230B43136104
S31510008B200020B1E05A4A116910230B43136100204B
S31510008B30AAE0574A116920230B4313610020A3E0D2
S31510008B40534A116940230B43136100209CE0504A9D
S31510008B50116980230B431361002095E04C4A136979
S31510008B60802149000B43136100208DE0484A1369A8
S31510008B70802189000B431361002085E0444A136964
S31510008B808021C9000B43136100207DE0404A136920
S31510008B90802109010B431361002075E03C4A1369DB
S31510008BA0802149010B43136100206DE0384A136997
S31510008BB0802189010B431361002065E0344A136953
S31510008BC08021C9010B43136100205DE0304A13690F
S31510008BD0802109020B431361002055E02C4A1369CA
S31510008BE0802149020B43136100204DE0284A136986
S31510008BF0802189020B431361002045E0244A136942
S31510008C008021C9020B43136100203DE0204A1369FD
S31510008C10802109030B431361002035E01C4A1369B8
S31510008C20802149030B43136100202DE0184A136974
S31510008C30802189030B431361002025E0144A136930
S31510008C408021C9030B43136100201DE0104A1369EC
S31510008C50802109040B431361002015E00C4A117D95
S31510008C6001230B43137500200EE0094A117D0223E0
S31510008C700B431375002007E0054A117D04230B43AF
S31510008C801375002000E0172000BDC04604440110F3
S31510008C9000B0004000B5432800D923E28000E04B25
S31510008CA01B589F46DF4B59680222914359605968F9
S31510008CB00A435A60002016E2DA4B5968042291439F
S31510008CC0596059680A435A6000200CE2D54B59681E
S31510008CD008229143596059680A435A60002002E2FB
S31510008CE0D04B596810229143596059680A435A600B
S31510008CF00020F8E1CB4B59682022914359605968FE
S31510008D000A435A600020EEE1C64B5968402291434F
S31510008D10596059680A435A600020E4E1C14B59680A
S31510008D2080229143596059680A435A600020DAE15B
S31510008D30BC4B5968BC4A0A405A605A68802149009F
S31510008D400A435A600020CEE1B64B5968B74A0A402A
S31510008D505A605A68802189000A435A600020C2E18D
S31510008D60B04B5968B24A0A405A605A688021C90005
S31510008D700A435A600020B6E1AA4B5968AD4A0A4028
S31510008D805A605A68802109010A435A600020AAE1F4
S31510008D90A44B5968A84A0A405A605A68802149016A
S31510008DA00A435A6000209EE19E4B5968A34A0A4026
S31510008DB05A605A68802189010A435A60002092E15C
S31510008DC0984B59689E4A0A405A605A688021C901D0
S31510008DD00A435A60002086E1924B5968994A0A4024
S31510008DE05A605A68802109020A435A6000207AE1C3
S31510008DF08C4B5968944A0A405A605A688021490235
S31510008E000A435A6000206EE1864B59688F4A0A4021
S31510008E105A605A68802189020A435A60002062E12A
S31510008E20804B59688A4A0A405A605A688021C9029A
S31510008E300A435A60002056E17A4B5968854A0A401F
S31510008E405A605A68802109030A435A6000204AE191
S31510008E50744B5968804A0A405A605A6880214903FF
S31510008E600A435A6000203EE16E4B59687B4A0A401D
S31510008E705A605A68802189030A435A60002032E1F9
S31510008E80684B5968764A0A405A605A688021C90365
S31510008E900A435A60002026E1624B5968714A0A401B
S31510008EA05A605A68802109040A435A6000201AE160
S31510008EB05C4B59686C4A0A405A605A6880214904CA
S31510008EC00A435A6000200EE1564B5968674A0A4019
S31510008ED05A605A68802189040A435A60002002E1C8
S31510008EE0504B5968624A0A405A605A688021C90430
S31510008EF00A435A600020F6E04A4B59685D4A0A4018
S31510008F005A605A68802109050A435A600020EAE02F
S31510008F10444B5968584A0A405A605A688021490594
S31510008F200A435A600020DEE03E4B5968534A0A4015
S31510008F305A605A68802189050A435A600020D2E097
S31510008F40384B59684E4A0A405A605A688021C905FA
S31510008F500A435A600020C6E0324A53685B005B0839
S31510008F6053605368802109060B4353600020BAE012
S31510008F702C4B1A8901218A431A81198901220A4325
S31510008F801A810020AFE0274B1A8902218A431A81E1
S31510008F90198902220A431A810020A4E0214B1A895A
S31510008FA004218A431A81198904220A431A8100204E
S31510008FB099E01C4B1A8908218A431A8119890822BB
S31510008FC00A431A8100208EE0164B1A8910218A4313
S31510008FD01A81198910220A431A81002083E0114B45
S31510008FE01A8920218A431A81198920220A431A8153
S31510008FF0002078E00B4B1A8940218A431A8119897F
S3151000900040220A431A8100206DE0064B1A898021FE
S315100090108A431A81198980220A431A81002062E044
S31510009020DC44011000B00040FFFEFFFFFFFDFFFF14
S31510009030FFFBFFFFFFF7FFFFFFEFFFFFFFDFFFFF66
S31510009040FFBFFFFFFF7FFFFFFFFFFEFFFFFFFDFFDD
S31510009050FFFFFBFFFFFFF7FFFFFFEFFFFFFFDFFF46
S31510009060FFFFBFFFFFFF7FFFFFFFFFFEFFFFFFFDBD
S31510009070FFFFFFFBFFFFFFF7FFFFFFEFFFFFFFDF26
S31510009080FFFFFFBF184B1989184A0A401A81198920
S31510009090802252000A431A81002024E0124B1989BB
S315100090A0134A0A401A811989802292000A431A81AA
S315100090B0002018E00C4B19890E4A0A401A811989AA
S315100090C08022D2000A431A8100200CE0064B19892F
S315100090D0094A0A401A811989802212010A431A8103
S315100090E0002000E0172000BD00B00040FFFEFFFF8B
S315100090F0FFFDFFFFFFFBFFFFFFF7FFFF8023DB04F2
S315100091009C466044800001607047C04670B5204B95
S315100091101C6823681D7DEDB26A0613D51E21222216
S31510009120A1541A7E23318A431A762123E35C1B0746
S3151000913006D52023E35C1B0702D520002369984738
S3151000914023681B7CEB0722D523681B7CDBB2626984
S315100091501370636901336361A38B013B9BB2A383D5
S31510009160A38B9BB2002B12D12133E35C5B070ED588
S315100091702023E35C5B070AD500222223E2542268EF
S31510009180137E01218B431376E3682000984770BD48
S315100091903C6E011070B5214B1C6823681D79EDB229
S315100091A0EA0717D5A2691178C9B20132A2611970FE
S315100091B0E38B013B9BB2E383E38B9BB2002B09D17C
S315100091C02268137A01218B4313722268117A1023B5
S315100091D00B431372EB0612D52123E35CDB070ED586
S315100091E02023E35CDB070AD500222223E2542268FF
S315100091F0137A10218B431372200063689847AB06CD
S315100092000AD52123E35C9B0706D52023E35C9B0745
S3151000921002D5A3682000984770BDC0463C6E011069
S3151000922070B5204B5C6823681D7DEDB26A0613D5B8
S315100092301E212222A1541A7E23318A431A76212313
S31510009240E35C1B0706D52023E35C1B0702D5200031
S315100092502369984723681B7CEB0722D523681B7C60
S31510009260DBB262691370636901336361A38B013BDF
S315100092709BB2A383A38B9BB2002B12D12133E35C49
S315100092805B070ED52023E35C5B070AD50022222359
S31510009290E2542268137E01218B431376E368200083
S315100092A0984770BD3C6E011070B5214B5C68236801
S315100092B01D79EDB2EA0717D5A2691178C9B2013244
S315100092C0A2611970E38B013B9BB2E383E38B9BB2E4
S315100092D0002B09D12268137A01218B43137222685D
S315100092E0117A10230B431372EB0612D52123E35C7C
S315100092F0DB070ED52023E35CDB070AD500222223E9
S31510009300E2542268137A10218B431372200063688B
S315100093109847AB060AD52123E35C9B0706D5202385
S31510009320E35C9B0702D5A3682000984770BDC04632
S315100093303C6E0110E1235B0203600023037143714D
S315100093408371C371023383600322C26001320261EA
S31510009350013242618361C361036243627047C04652
S31510009360F8B54F464646C0B4050017000160002305
S3151000937043608360C360036143618361002283831A
S31510009380C3832033C2540133C2540133C254554BE4
S31510009390994218D10920544CA0470A20A047092009
S315100093A0524CA0470A20A047514B1D60514910202E
S315100093B0514CA04751491120A047514B01221A6028
S315100093C001321A601AE04F4B994217D10B20464CC6
S315100093D0A0470C20A0470B20444CA0470C20A047C8
S315100093E0434B5D6048491220434CA0474749132020
S315100093F0A047434B04221A6004321A60FB790422F8
S315100094009046002B52D1023398464FE0318A01CE56
S31510009410C0B2C8470134E4B24445F7D32B681A7D6D
S31510009420D20704D501211A7C1A7D0A42FBD10021EC
S3151000943020229954FB79591E8B4159013B797A792F
S3151000944013430B43BA79022A0DD0D1B2022902D89E
S31510009450012A05D00FE0032A08D0042A09D00AE011
S315100094600222134307E00622134304E00A221343A1
S3151000947001E00E221343202229688B543E68244BA8
S31510009480984704003100234B984782B20004000C21
S315100094907043201A3109884206D900230133DBB202
S315100094A0401A8842FAD807E0002305E03E00083645
S315100094B00024194B9946A9E7002128202C6821542D
S315100094C001331B075B0FD20013439BB22A689384A8
S315100094D02B6819762B68197200200CBC9046994699
S315100094E0F8BDC04600400040958C00103989001028
S315100094F03C6E01100D910010FD900010959100101A
S3151000950000E100E00050004021920010A9920010E6
S315100095102D890010B10701105D8700100268012027
S3151000952013790342FCD011700020704702680120A5
S31510009530137D0342FCD0137C0B7000207047C0468D
S315100095401723002A0DD00B33C35CDBB2052B08D0D2
S315100095508283416105222223C2540368043A1A7693
S31510009560002318007047C0469300C3185960202185
S3151000957001239340425C13434354704710B5212294
S3151000958001238B40845C23438354012904D1026850
S31510009590117A20230B43137210BDC04610B5012259
S315100095A08A402124035D93430355012904D102689F
S315100095B0137A1F318B43137210BDC0460268117A9D
S315100095C010230B4313720368074A934204D10221F6
S315100095D08023064AD15006E0054A934203D108215A
S315100095E08023024AD15070470040004000E100E05D
S315100095F0005000400268117E01230B431376036866
S31510009600074A934204D102218023064AD15006E02C
S31510009610054A934203D108218023024AD15070474C
S315100096200040004000E100E000500040F0B5474621
S3151000963080B40C00904600280DD1002A0EDD8F183C
S31510009640084E094D306821002B6898470134A7420F
S31510009650F8D1404603E00120404200E0002004BC5F
S315100096609046F0BD4C6E0110446E0110F0B54746A1
S3151000967080B40E0015000138022811D8002A12D025
S3151000968000240C4B98460C4F43461868315D3B68D6
S315100096909847002809DB0134A542F5D1200006E0E1
S315100096A00120404203E0002001E00120404204BCBA
S315100096B09046F0BD4C6E0110486E01100300064A2C
S315100096C01268002A02D10549034A1160024A10683D
S315100096D0C31813607047C04694530110288D0110AB
S315100096E0012040427047C04680239B014B600020FA
S315100096F07047C04601207047002070470022024B79
S315100097009A7100207047C046506E011000207047B5
S3151000971010B5010018220248024B9847002010BDD0
S315100097206A6E01100D31011010B5010018220248A1
S31510009730024B9847002010BD826E01100D310110AA
S3151000974010B5010016220248024B9847002010BDA2
S315100097509A6E01100D31011080B50C4FBD440100F9
S315100097600B4A02A80B4B98476B461B896A46D38057
S31510009770937A13710E236B440093074B1B6868464C
S315100097809847002084239B009D4480BDF0FDFFFF79
S31510009790060200000D310110B06E01100020704756
S315100097A010B50100134C12222000134B9847083CA9
S315100097B0A379002B1BD1114C0133E37102221F3305
S315100097C0E254200021300E320D490B4B98472300EE
S315100097D02033208A0B4A01210B4CA047041E06D0C9
S315100097E00A480B4B984721000A480B4B9847002014
S315100097F010BDC046586E01100D310110506E01108B
S31510009800EC450110FFFF000041CD00107446011019
S3151000981051320110784601103131011010B582B065
S31510009820010001AC04222000194B9847E3780A2B5B
S315100098302AD101AB9B78032B0ED1164BDA8B998B61
S31510009840188A154B984700281ED01448144B984771
S315100098501448154B984717E0052B10D10D4BDA8B92
S31510009860D98E013189B2588E104B984700280BD0EB
S315100098700A480B4B98470E480B4B984704E0072BAA
S3151000988002D10122034B9A71002002B010BDC046CE
S315100098900D310110506E011099CD00107446011053
S315100098A051320110A846011031310110C1CD0010FE
S315100098B0D0460110F0B587B005AC012626700025FC
S315100098C065700E480E4FB8470C48B8470D4B4C22E2
S315100098D0995A023A985A0296019500940223002248
S315100098E0094CA047E22805D10448054B984707487C
S315100098F0074B9847002007B0F0BDC04674460110CC
S3151000990051320110506E0110E9CD0010EC460110D5
S3151000991031310110014B186099807047506E01105B
S3151000992010B50F4B998818680E4B98470E4A0021B0
S3151000993000200E4CA0470E4A01210020A0470D4AD8
S3151000994002210020A0470C4B9847041E06D00B4856
S315100099500B4B984721000B480B4B984710BDC04640
S31510009960506E0110FDAB00102846011009A300101F
S3151000997000460110804701104DAB001074460110CF
S31510009980513201101C4701103131011010B503007E
S31510009990084A92888A4206D3064A108A0A00190093
S315100099A0054B984704E00349088A1900024B98476B
S315100099B010BDC046506E011079AC001010B584B0C1
S315100099C0002302930D4B0193C823DB000093002361
S315100099D00022012100200A4CA047002806D1094880
S315100099E0094B984709480A4B984705E00548064B26
S315100099F098470848064B984704B010BD8F020000E0
S31510009A005DCB00107446011051320110444701100D
S31510009A103131011064470110014B18607047C04680
S31510009A20B06E01100020704700207047C0780028E3
S31510009A3000D0E2207047C0460020704710B500786D
S31510009A40002806D00348044B98470448044B98470F
S31510009A50E22010BD74460110513201102C4901103C
S31510009A603131011010B50400C078002808D005481F
S31510009A70054B9847A27821880448054B9847E22061
S31510009A8010BDC046744601105132011040490110F4
S31510009A9031310110F8B50400194B9B2292009D1824
S31510009AA00127002618001A00563A1188228891427A
S31510009AB019D11A78052A01D0082A01D1077012E0A7
S31510009AC0072A0FD892000F498A5897461E700E4AD9
S31510009AD01278002A07D00C4A1278013AD2B20A49F3
S31510009AE00A7000E006707C33AB42DBD10748084BA6
S31510009AF098472288A1780748074B98470020F8BD59
S31510009B002A6F0110A8470110387101107446011010
S31510009B10513201107849011031310110F8B50600A3
S31510009B200188284B00241A898A4204D11A005E3211
S31510009B301278062A2ED00134E4B27C33052CF2D1E9
S31510009B4039E0204963011A1B92008A181576140011
S31510009B505E34072323701C481C4B98471C481D4B2A
S31510009B609847E2252BE01848184B98471A48194B86
S31510009B709847144963011A1B92008A1810005E3028
S31510009B8008270770F0781075B2781C1BA4000C1902
S31510009B90227614E0B578002DE5D0D2E70A4E3000D3
S31510009BA00A4DA8470C480B4CA0473000A8470B4855
S31510009BB0A047E22503E0B578002DC2D1EEE72800D4
S31510009BC0F8BDC046CC6E011074460110513201101A
S31510009BD0A849011031310110BC490110E0490110AA
S31510009BE010B50100154B1B78DBB2132B12D8134C92
S31510009BF02378DBB29800C018C000C3181048181894
S31510009C002922104B9847237823780133DBB223702F
S31510009C10002311E00C480D4B98470D480D4B984703
S31510009C200D4B9847E223002806D00748074B984764
S31510009C300A48084B9847E223180010BD7C5C0110B7
S31510009C40B07101100D31011074460110513201101E
S31510009C50084A01103131011099CC0010404A011008
S31510009C60F8B54F464646C0B4050041883A4B002425
S31510009C701A898A4204D11A005E321278032A62D0F7
S31510009C800134E4B27C33052CF2D12BE063011C1BAA
S31510009C90A400314B1C195E342378012B13D92F489D
S31510009CA02F4B98472F48304B9847688813212F4BD6
S31510009CB09847061E4BD02948294B98472C482A4BC3
S31510009CC09847E22643E0002641E0244E3000244D1A
S31510009CD0A8472848244CA0473000A8472648A04744
S31510009CE0E22634E02B79002BD0D1EEE71B481C4B33
S31510009CF0984720481C4B98472A78174B9946670176
S31510009D003B1B9B004B441A752A791A765E33052243
S31510009D101A70381B800048443630290022310B3225
S31510009D20164B98469847381B800048444630290001
S31510009D3032311722C047381B800048441A30A91DFB
S31510009D401C22C04703E02E79002ECFD09EE73000AC
S31510009D500CBC90469946F8BDCC6E011074460110A5
S31510009D6051320110584A011031310110B9CC00108E
S31510009D70784A0110944A0110C04A01100D310110A1
S31510009D8010B50088782301220121024CA04700203B
S31510009D9010BDC046D9CC0010F0B557464E464546C4
S31510009DA0E0B484B004000922002101A86B4B984747
S31510009DB025886B490A0000231089A84216D1100085
S31510009DC05E300078022811D165485A01D61AB600BD
S31510009DD086195E3606223270F93213405A01D21AAB
S31510009DE092008218127DD00705D41BE001337C3215
S31510009DF0052BE1D11EE0E078002813D05901C91ACD
S31510009E008B005749C9181A312088564B9847002895
S31510009E1000D19DE05448554B98475548554B9847A7
S31510009E20E22095E05A01D31A9B004D4AD3185E33AF
S31510009E3002221A7025880022002316000889A842DB
S31510009E400DD108005E300078022808D15201921B0D
S31510009E509600434A92195E320321117005E00133D0
S31510009E60DBB201327C31052BE7D101AA0221117236
S31510009E70E178917001215170033111701F005A0160
S31510009E80D21A92003649525C022A04D101AA032141
S31510009E909171D17103E001AA01219171D17101AAC9
S31510009EA01021517111717A01D21B92002C498A1816
S31510009EB0127E402A34D15A01D31A9B009A461E00AC
S31510009EC060367618554668356D182B4B99460F2314
S31510009ED09846C847434618403070C847434618400E
S31510009EE0B0740136AE42F4D1564670361C4AB618D6
S31510009EF0214B99460F239846C84743461840287069
S31510009F000135B542F8D11C4B98477B01DB1B9B00F2
S31510009F10134AD3181A00703210807A3310221A702E
S31510009F207A01D71BBF0060370D4ABA182088002364
S31510009F3001A9124CA04700280AD001AB00229A7042
S31510009F405A700948094B98470D480A4B9847E22022
S31510009F5004B01CBC90469946A246F0BD1F310110B4
S31510009F60CC6E011091D900107446011051320110B7
S31510009F70F04A01103131011065320110A5D70010D9
S31510009F80084B0110F0B55F4656464D464446F0B4B0
S31510009F9085B083460488494A002100231089A042CF
S31510009FA00DD110005E300078022808D14A01521AED
S31510009FB09500424A52195E320321117005E00133B1
S31510009FC0DBB201317C32052BE8D101AA02211172D4
S31510009FD001399170517000211170D1701F005A0112
S31510009FE0D21A92003549525C022A04D101AA0321E1
S31510009FF09171D17103E001AA01219171D17101AA68
S3151000A0001021517111717A01D21B92002B498A18B5
S3151000A010127E402A31D15A01D31A9B009A461D004E
S3151000A02060356D18544668346418254B99460F26CA
S3151000A030C84730402870C8473040A8740135A5423B
S3151000A040F6D1554670351D4AAD181D4B99460F234E
S3151000A0509846C8474346184020700134AC42F8D1A0
S3151000A060174B98477B01DB1B9B00144AD3181A0029
S3151000A070703210807A3310221A707A01D71BBF0003
S3151000A08060370E4ABA185B461888002301A90D4C92
S3151000A090A04700280AD001AB00229A705A700A48CD
S3151000A0A00A4B98470A480B4B9847E22005B03CBC30
S3151000A0B090469946A246AB46F0BDC046CC6E0110FE
S3151000A0C065320110A5D700107446011051320110E7
S3151000A0D0344B011031310110F0B585B00500062260
S3151000A0E03D4902A83D4EB04701AC0422290020008C
S3151000A0F0B047E378002B62D139483A4B98473A4833
S3151000A1003A4B984700263A4CFF271E20A047C3B269
S3151000A110002B1AD1324F3800324EB0473548334CE7
S3151000A120A0473800B0473448A04728881321334B3E
S3151000A13098470300E220002B4CD02948294B98471A
S3151000A1402F482A4B9847E22044E01A00303A092A51
S3151000A150DBD802AAB35438402A4B98470136062E4C
S3151000A16026D0D2E71E481F4B984727481F4B9847C3
S3151000A1700024244E02ABE05CB0470134062CF9D122
S3151000A18001AB9978288802AA204B9847002821D03D
S3151000A1901348144B98471E48144B9847002019E053
S3151000A1A00F48104B98471B48104B9847002011E05A
S3151000A1B00B480C4B984718480C4B9847D8E701ABFF
S3151000A1C05A8880235B009A42CCD001AB9B78012B36
S3151000A1D0E6D0002005B0F0BDD44801100D310110B5
S3151000A1E074460110513201105C4B011031310110CF
S3151000A1F0B9AE0010844B0110904B0110B9CC001071
S3151000A200784A011065310110A44B0110D5D8001001
S3151000A210DC4B0110F44B0110104C0110F8B5060080
S3151000A22005882F4B0022002410001989A94216D147
S3151000A23019005E310978012911D929495201101ADC
S3151000A240800008185E30062303706201131B9B0002
S3151000A250CB1870331A8873889A4213D106E00134EA
S3151000A260E4B201327C33052CDED10BE06101091B0F
S3151000A27089001B4B59187231301D0822194B98470B
S3151000A280002815D0184F3800184EB0471848194DE9
S3151000A290A8473800B0471848A84763011C1BA400FC
S3151000A2A00F4B1C1920890521144B9847E22016E004
S3151000A2B06201131B9B00603309495B18141BA40031
S3151000A2C00C19217D308801220D4CA047002806D09C
S3151000A2D00548064B98470B48064B98470020F8BD93
S3151000A2E0CC6E0110EF30011074460110513201107E
S3151000A2F0244C0110313101105C4C0110B9CC001006
S3151000A30009DA0010B44C011030B5002A47D00629DE
S3151000A31047D88900284B5B589F46284B05240AE0EE
S3151000A320274B012407E0274B052404E0264B012484
S3151000A33001E0264B0524002816D1196800290BD1F7
S3151000A34006E01D000433181F0068002806D100E03F
S3151000A3501D002A6001212CE0043300210131C9B20D
S3151000A360A142EED3002124E00021012821D1196851
S3151000A3708A420CD106E01D000433181F0068824281
S3151000A38007D100E01D0000232B60012111E00433EA
S3151000A39000210131C9B2A142EDD3002109E000210B
S3151000A3A007E0002105E00A4B0524C4E7094B012408
S3151000A3B0C1E7080030BDC046C8470110B86E01108D
S3151000A3C0B46E01103C710110F0760110507101103D
S3151000A3D064710110AC710110F0B55F4656464D46DA
S3151000A3E04446F0B491B0050000247E4B1C60072251
S3151000A3F000217D487D4EB047122200217C48B0478F
S3151000A4007C4A00217C48B0477C4B1C70CD229200C0
S3151000A41000217B48B0477B4B1C70832292000021A1
S3151000A4207948B047794B9B468023DB009A461A0041
S3151000A43000215846B047764B994680235B019846D3
S3151000A4401A0000214846B047724F1C2200213800DE
S3151000A450B0475B46BB605346FB604B463B61434689
S3151000A4607B616D4B1C605C609C60DC601C616B4B9F
S3151000A4701C605C609C60DC601C61694B1C605C60ED
S3151000A4809C60DC601C61674B1C60674B1C60674BF3
S3151000A4901C605C609C60DC601C61654B1C60654CDC
S3151000A4A09B239B009846A044504F40267C220021B7
S3151000A4B02000B84723005E3300221A7026767C34BB
S3151000A4C0A045F3D15C4B1A70524C4A4B63604A4B11
S3151000A4D023605A485A4B98475A485B4B9847200076
S3151000A4E05A4B984700280BD0544E3000544DA8476D
S3151000A4F05748554CA0473000A8475648A047FEE796
S3151000A500554A00210020554CA047554A02210020EB
S3151000A510A04706215348544B9847002805D0474872
S3151000A520474B98475148484B98470722504908319E
S3151000A53004A8504B98472622002106A82B4B984773
S3151000A540002D0CD104A84C4B984704AD002806D01A
S3151000A5503A483B4B984749483B4B984704AD3748D8
S3151000A560374B98472B796A79A979287803906878B8
S3151000A5700290A8780190E87800904148324CA047A4
S3151000A58006AC0A2323703F4B63800722290007A8D5
S3151000A590384B98470023E37623776377A377E377DF
S3151000A5A02384638480239B00A3842000364B984722
S3151000A5B0002805D02148224B98473448224B98470B
S3151000A5C02800334B9847002805D01C481C4B984749
S3151000A5D030481D4B984711B03CBC90469946A24650
S3151000A5E0AB46F0BD785C0110805C01101F31011084
S3151000A5F078710110E2040000985701107C5C01107C
S3151000A600B0710110A8710110E47401109853011073
S3151000A610885C01108C710110507101106471011069
S3151000A620B86E0110AC710110B46E01103C710110BE
S3151000A630F0760110CC6E01103871011074460110BD
S3151000A64051320110D44C011031310110D1C8001013
S3151000A650E84C0110084D01103C4F011009A30010E1
S3151000A66004490110444D0110E9C700104C4D01106A
S3151000A670D44801100D3101101DC80010644D011091
S3151000A6807C4D0110983A000041C80010B44D0110DD
S3151000A69085CA0010D84D011010B501220121064BB4
S3151000A6A09847002806D00548054B98470548064B9D
S3151000A6B09847E22010BDC04651D9001074460110CB
S3151000A6C051320110144E011031310110F0B55F46B0
S3151000A6D04E464546E0B49AB00500867A002E00D064
S3151000A6E0C6E07548754FB8472B796A79A9796878A5
S3151000A6F00290A8780190E87800907148714CA047B4
S3151000A7006D48B84729897048A047122229006F481A
S3151000A7106F4B98470495072229006E486E4B984751
S3151000A720002800D1ADE02B78022B00D0A9E05022F2
S3151000A730002106A8694B9847694F00230BE0591C66
S3151000A740147806A8C45401328BB2B342F7D17C37C1
S3151000A750331E502B04D01E001036B6B23A00EEE768
S3151000A76006AA290005205F4B9847061E00D19CE0DB
S3151000A7705148524B98475C48524B9847E22694E012
S3151000A780E7B20594072204994846D847002809D10C
S3151000A790059A53019B1A9A00544B9B185E3302225A
S3151000A7A01A702BE001347C239C46E144052CE7D13A
S3151000A7B072E01C00117800291AD101E0002400274C
S3151000A7C063019946181B8000484B98464044122254
S3151000A7D029003F4B9847464A13780133DBB2137072
S3151000A7E04B461B1B9B0043445E3302221A7005E046
S3151000A7F0791CCFB201337C32052FDAD1072229001A
S3151000A8003448354B984700280CD17B01DB1B9B0045
S3151000A810364AD31805229A74023200212D482F4B3E
S3151000A820984742E0314B98467C01E31B9B0043441A
S3151000A8300A229A74033A00212648284B9847E41BAB
S3151000A840A4004444A37C0A2B2FD10DE01A481B4BBD
S3151000A8509847274B1978C9B226481A4B9847288922
S3151000A8601321254B984720E02889244B98471CE054
S3151000A8701148124B9847A97A2148124B984700263F
S3151000A88013E01B4B1B78DBB2042BDFD8174B994612
S3151000A8900024114B9B4673E75E23144AD35C002BAE
S3151000A8A08CD0184A0123012783E730001AB01CBC4C
S3151000A8B090469946A346F0BD7446011051320110D8
S3151000A8C0344E011031310110784E0110787101109B
S3151000A8D00D310110805C0110EF3001101F31011095
S3151000A8E0126F0110E5CC0010904E0110CC6E0110C5
S3151000A8F038710110B44E0110B9CC001099A6001091
S3151000A900F04E0110A66F0110F0B5474680B40378DB
S3151000A910002B41D12F4D0024461C2F4F1022290009
S3151000A9203000B84700283FD00134E4B27C35052CFE
S3151000A930F4D131E0DDB21C001178002922D101E0FA
S3151000A94000240025254B98466601371BBF00474457
S3151000A950122223493800234B9847234A1378013390
S3151000A960DBB213705E3702233B70341BA4004444E1
S3151000A9700833A3746B015D1BAD004544AB7C0A2BF9
S3151000A98023D104E001337C32052BD3D11DE0144BC7
S3151000A9901889164B984718E05E23104AD35C002B93
S3151000A9A0CED0134A0123C5E70C4863011A1B920047
S3151000A9B0821811005E3102250D700A219174100063
S3151000A9C012220749074B9847E1E7002004BC90463E
S3151000A9D0F0BDC046126F0110EF300110CC6E0110A1
S3151000A9E0787101100D3101103871011099A60010FF
S3151000A9F0A66F0110F8B50D003B2872D883003C4AAB
S3151000AA00D3589F46840000263A4FBB59002B04D0DA
S3151000AA101B59002B01D0280098470436142EF4D168
S3151000AA2065E01338C4B2A4000026334FBB59002B7F
S3151000AA3004D01B59002B01D0280098470436142E39
S3151000AA40F4D154E01D38C4B2A40000262B4FBB59D4
S3151000AA50002B04D01B59002B01D028009847043630
S3151000AA60142EF4D143E02738C0B2254B1B68002BB7
S3151000AA703DD08000C358002B39D00800984736E0E7
S3151000AA802D38C0B21F4B1B68002B30D08000C35826
S3151000AA90002B2CD00800984729E03638C4B2A40001
S3151000AAA00026194FBB59002B04D01B59002B01D07F
S3151000AAB0280098470436142EF4D118E03838C0B25E
S3151000AAC0124B1B68002B12D08000C358002B0ED0DF
S3151000AAD0080098470BE00E4B1B68002B07D09847D1
S3151000AAE005E00C4D28000C4CA0472800A047F8BDE7
S3151000AAF0E44701105071011064710110B86E011015
S3151000AB00AC710110B46E01103C710110F076011099
S3151000AB10785C0110744601105132011010B5020014
S3151000AB2006490748074B9847041E04D1044B18786A
S3151000AB300249054B9847200010BDC046E474011029
S3151000AB40A871011079C00010F5A90010F0B54F4694
S3151000AB5080B490B008AD07266E701C4C10221C49AC
S3151000AB60222068441B4B9946984711272F70AE74C4
S3151000AB700236EE74184B1A680D929A880DAB9A80AD
S3151000AB8015236A465370102211496B46981CC84704
S3151000AB906B461F709E74FF236A46D37405AA230062
S3151000ABA0243303CB03C21C236A461A2128000B4CFC
S3151000ABB0A047002805D00A480A4B98470A480B4B6D
S3151000ABC09847002010B004BC9146F0BDD44801103F
S3151000ABD0E44801100D310110444D0110D9CA00107E
S3151000ABE07446011051320110184F01103131011005
S3151000ABF0014B18607047C046785C0110F0B54F469F
S3151000AC004646C0B483B081460E00174C02239846C0
S3151000AC102370601C154D10222900154FB8470023CC
S3151000AC2063824346A3752000173029001431102281
S3151000AC30B847102323854B46E36226866686222272
S3151000AC403423E25421001231333B01932300143391
S3151000AC500093002300222000064CA04703B00CBC32
S3151000AC6090469946F0BDC046F4760110884F011003
S3151000AC700D31011009D50010F0B583B007000D0095
S3151000AC8016006B46991D00230B8001AA0233138010
S3151000AC9048331A48C05A1A4B9847041E07D0194809
S3151000ACA0194B984719481A4B9847200023E06B46D2
S3151000ACB006331B880020012B1DD1104B988A3200B9
S3151000ACC02900144B9847041E07D00E480E4B984780
S3151000ACD011480F4B984720000DE0084B998A380011
S3151000ACE00E4B9847041E06D00648074B98470C484B
S3151000ACF0074B9847200003B0F0BDC046F47601100C
S3151000AD0065D500107446011051320110B04F011074
S3151000AD103131011029D50010E44F0110C9D60010A9
S3151000AD201850011010B50E4B1B78012B0BD10222B7
S3151000AD300B4B1A700B4B1B68002B10D102210A48C3
S3151000AD400A4B98470BE0074B1B68002B07D0084CA3
S3151000AD5020789847012221000348064B984710BDDA
S3151000AD608C6C0110946C0110447701109D950010A5
S3151000AD70906C01104195001070B506000D00034C43
S3151000AD8029003000A0470028FAD170BD2D9500107B
S3151000AD9070B506000D00034C29003000A0470028AE
S3151000ADA0FAD170BD1D95001070B500210020194B09
S3151000ADB09847194C2000194B9847E1235B022360F2
S3151000ADC00223A3600322E260013222610132626132
S3151000ADD0A361E36123626362114D124B1D60124A37
S3151000ADE0124B1A60124A134B1A602200124928009D
S3151000ADF0124B9847124E336898680021114CA047A1
S3151000AE00336858680021A04702220F4928000F4BCB
S3151000AE10984770BDA9880010687701103593001007
S3151000AE20447701104C6E011091AD0010486E011060
S3151000AE3079AD0010446E011000400040619300107F
S3151000AE4060530110DD32011025AD00106995001018
S3151000AE50F0B583B005000D4CA047A0470C4FB8477E
S3151000AE600C4E0D4A0D4BB04700900191FA20800010
S3151000AE706843B84702000B0000980199B047084B89
S3151000AE809847084B186003B0F0BDC0462D890010D6
S3151000AE909D2E0110D1210110C7AEFE19EFD8093F22
S3151000AEA08D0B0110886C0110024B1A68501E186029
S3151000AEB07047C046886C011070B504000122114B12
S3151000AEC01A70114B1B68002B03D102210F48104B2F
S3151000AED0984720000F4B98470F4900230B7001220B
S3151000AEE00A480E4B9847074C0D4D2378022B02D07B
S3151000AEF0A8470028F9D10022024B1A70064B187881
S3151000AF0070BDC0468C6C0110946C01104477011012
S3151000AF107D95001051AE0010906C011041950010F7
S3151000AF20A9AE001010B5064B1860064C0221200081
S3151000AF30054B9847012205492000054B984710BD3F
S3151000AF40946C0110447701107D950010906C0110DF
S3151000AF5041950010024B1A68026018607047C0468F
S3151000AF609C6C011030B50B4B1C68002C11D0256859
S3151000AF701D6000232360A160E280A080064B1A6842
S3151000AF80002A02D11C6004E01A001368002BFBD1C2
S3151000AF90146030BD9C6C0110986C0110F0B55746CA
S3151000AFA080B482B0824601911600154B1C68002CA5
S3151000AFB008D1144D1F000020A84700903C68002CB3
S3151000AFC0F9D001E0002300930D4B22681A60A38884
S3151000AFD0524613803288E388191C9BB2934200D9DB
S3151000AFE0111C8AB23180A1680198074B984720003E
S3151000AFF0064B9847009802B004BC9246F0BDC04676
S3151000B000986C011049B400100D31011055AF0010A5
S3151000B01070B50023064A1360064A1360064C2600D4
S3151000B0207836064D2000A8470C34B442FAD170BDCC
S3151000B0309C6C0110986C0110A06C011055AF00109B
S3151000B04070B50400134B1D68134B1B6898470C2CE6
S3151000B0501FD00C3CE388052B1BD0EB0714D40F4BE9
S3151000B0601B68022098470E4B1B6898470D4C03200F
S3151000B070236898470028FAD10B4B1B680230984773
S3151000B08001220A4B1A6004E0094B1868094B1B6829
S3151000B090984770BDECB10040486D0110406D01102D
S3151000B0A0546D01102C6D0110346D011020B000404C
S3151000B0B0386D0110286D011010B5064B064A196837
S3151000B0C011605A68054B1A60054B1B68002B00D09F
S3151000B0D0984710BD907701100CB0004010B000409A
S3151000B0E06C7A011070B5322200210D480D4B98472D
S3151000B0F000210B48012502244A0011548218537866
S3151000B1002B43DBB2A343537001311929F4D1044BFD
S3151000B1105A7818398A435A70DA788A43DA7070BDC9
S3151000B120AC7701101F310110064A1168064B0B400F
S3151000B1301360064A136006490868064B03400B6005
S3151000B140536070470CB00040D30FFEFF907701108C
S3151000B15010B00040C0E7FFFFF0B557464E464546D3
S3151000B160E0B44F4B1B78002B04D04D4B1B78012BB2
S3151000B17000D18CE04B4B98474B4B98470023984691
S3151000B1804A4B42461A604A4C802380221204924649
S3151000B190E250802252049146E250464D464B2B60B7
S3151000B1A0464B474A13604749474A1160474A116858
S3151000B1B0474A1160474A1168474A11604749484A49
S3151000B1C011604849484A1160484F494A3A6049490E
S3151000B1D0494A116049494A4A11604A4E4A4A326000
S3151000B1E04A494B4A11604B494B4A11604B494C4AEC
S3151000B1F011604C494C4A11604C494D4A1160282047
S3151000B20098474C4928202B6898472B684A4927208D
S3151000B21098474A4B1A684A4B1A604A4A4A4B1A6070
S3151000B2204A4A4B4B1A604B4A4B4B1A604B4A4C4B93
S3151000B2301A604C4A4C4B1A604C4A4D4B1A604D4A98
S3151000B2404D4B1A60A022920000214C484C4B984757
S3151000B250802292004B4B1A804B4B984753462360E3
S3151000B2604B462360494B42461A603B68484A1A606F
S3151000B2703368484A1A600020474CA0470120A0476F
S3151000B2800220A0470122064B1A70002003E001227B
S3151000B290034B1A7001201CBC90469946A246F0BD7D
S3151000B2A0306D0110E5B0001029B10010506D01107D
S3151000B2B000E100E0607A0110D7070000BD0700002A
S3151000B2C09C77011051BC0100647A0110BC00041077
S3151000B2D0206D0110B80004101C6D01109FB90100FB
S3151000B2E098770110DBB90100A4770110747A011068
S3151000B2F03C000410C01F0410A8770110C41F0410CE
S3151000B300707A0110687A0110D41F0410D81F041027
S3151000B310A0770110E9CB0100406D01108FCD01001F
S3151000B320346D0110A3CE0100546D0110CFCB010076
S3151000B3302C6D0110B1B7001045B70010E4000410D1
S3151000B340486D0110E99F0100586D0110DDDB010009
S3151000B350286D01105BDC01003C6D0110EC0504103A
S3151000B360386D0110E3D50100446D0110200C041056
S3151000B3705C6D0110099F0100186D0110E077011036
S3151000B3801F310110787A011011B000106C7A01107B
S3151000B390B9B000100DB80010F5B70010044B1A78AC
S3151000B3A00523012A02D1034B1860002318007047A9
S3151000B3B0306D0110506D011070B504000E4B1B68F6
S3151000B3C0002B02D0408898476080E388A288618865
S3151000B3D020880A4D2D68A8470500E288002A02D168
S3151000B3E0074B984706E021000831064B984728007E
S3151000B3F0034B984770BDC046206D0110586D011063
S3151000B40041B000100D31011070B515001C000A0274
S3151000B41002430A4B1E6823000521A020C000B04736
S3151000B420061E0AD0002C05D0002D03D022002900BC
S3151000B430034B98473000034B984770BD586D011069
S3151000B4400D31011041B00010F0B55F4656464D461D
S3151000B4504446F0B487B0441E00239946E31C1CD81A
S3151000B4600D22002102A8824B9847332302AA13709B
S3151000B470303B537093700233137193711472230A15
S3151000B4805372230C9372240ED472012313730D215D
S3151000B4901000784B98470123994600240025764FD3
S3151000B4A0764E7749386833689847002800D088E088
S3151000B4B0734B1C68A3889A46CD239B009A4500D1EE
S3151000B4C0C7E023899B46638998464B46002B11D0CB
S3151000B4D00D22002102A8664B9847332302AA137047
S3151000B4E0303B537093700233137193710D2110001A
S3151000B4F0604B9847A023DB009A4521D1614B1B88EE
S3151000B5004344A0229200934202DD803A5D4B1A809A
S3151000B5105C4B9A461D885C4BED1821000C31424657
S3151000B52028005A4B9847424629005846584B984788
S3151000B53053461B88434452461380002402253AE0A2
S3151000B540544B1B68002B32D04D4B1A689388CD2173
S3151000B55089008B4204D14B460124002B2BD028E0C6
S3151000B5604D4C494D25602B701B0A6B7010894B4B47
S3151000B5701B6898472871000A68712068404B1A6842
S3151000B580D28842801D686B89C380083020606A8922
S3151000B590002A03D029000C313C4B984769890831A1
S3151000B5A03C4B1B68384898470024032503E00024C9
S3151000B5B001E00024D025324B1868394B1B68984798
S3151000B5C000E00725002C00D06BE74B46002B46D039
S3151000B5D0294B1E68002E04D100231C6A002C31D181
S3151000B5E03DE0346A14239C46B44463466046009397
S3151000B5F02C4B1B689847002C1FD00027CD239B008F
S3151000B6009846274B9A46200003689B88434510D1DD
S3151000B610002F06D08368BB6053461B689847B868EE
S3151000B62009E0836833621E4B1B6801939847306AA2
S3151000B63001E0070080680028E6D11B4B1B680098C4
S3151000B64098470CE014230093164B1B681420984758
S3151000B650D3E7104B1B680024002BACD07BE72800E7
S3151000B66007B03CBC90469946A246AB46F0BDC046D4
S3151000B6701F310110B9B300105C6D0110446D01103B
S3151000B680246D0110787A0110E07701100D31011048
S3151000B69065AF0010506D01104C6D01101C6D01103E
S3151000B6A0186D01103C6D0110286D011010B5034B7B
S3151000B6B01B68802000029847082010BD987701105B
S3151000B6C010B5034B1B688020C0019847002010BDA1
S3151000B6D0A477011030B5184A138F9BB2108D8021B4
S3151000B6E00902014311851000144D01240022DB05C7
S3151000B6F0DB0D11D0DBB259420B40012B06D01100E5
S3151000B7005B080131C9B2012BFAD100E01100230008
S3151000B7108B409BB2038703E0038F2B439BB20387B7
S3151000B720038FDB05DB0DE2D1802149008133FF3326
S3151000B730034AD15030BDC046001001400080FFFFC3
S3151000B74000E100E030B5174A138F9BB2108D8021AF
S3151000B7500902014311851000134D01240022DB0557
S3151000B760DB0D11D0DBB259420B40012B06D0110074
S3151000B7705B080131C9B2012BFAD100E01100230098
S3151000B7808B409BB2038703E0038F2B439BB2038747
S3151000B790038FDB05DB0DE2D180218133FF33034AB2
S3151000B7A0D15030BD000001400080FFFF00E100E0F5
S3151000B7B010B50C4B1B8F5B0B10D00B4B1B689847AF
S3151000B7C0084A138F118F5B0B5B030B431387802182
S3151000B7D04900C0235B00054AD15001E0044B98474D
S3151000B7E010BDC04600100140647A011000E100E06F
S3151000B7F0D5B600100323022804D880000022024B7D
S3151000B800C2500023180070477C7A011010B504004E
S3151000B8100378012B08D1114B1B68002B00D09847D9
S3151000B820FF2322689A4322606378012B08D10B4BC1
S3151000B8305B68002B00D09847094B226813402360A1
S3151000B840A378012B08D1054B9B68002B00D0984795
S3151000B850044B22681340236010BDC0467C7A011049
S3151000B860FF00FFFFFFFF00FF0020704710B50248E2
S3151000B870024B984710BDC046687B0110D18200105C
S3151000B88010B50348034B9847034B9847002010BD4B
S3151000B89085B90010199A0010BD99001070B50D28C1
S3151000B8A018D1194B1B88002B2DD0184C22000121C2
S3151000B8B00B38174DA847962200212000154B9847A4
S3151000B8C00022114B1A801448144B98472020144B11
S3151000B8D0984718E00C4C23885A1C22800B4AD054E7
S3151000B8E00F4B98472388952B0DD9084C2200012120
S3151000B8F00220074DA847962200212000054B9847A5
S3151000B9000022014B1A8070BDF2520110D07A01103C
S3151000B91009B400101F310110744601105132011084
S3151000B9206531011010B5A8B09622002101A80A4B66
S3151000B93098479E246C4427AA01A92000074B9847D4
S3151000B940228881235B009A4204D127AB198801A86B
S3151000B950034B984728B010BD1F3101109DAF001042
S3151000B9608D99001010B500211620014B984710BD77
S3151000B970D186001010B501211620014B984710BD35
S3151000B980D1860010F0B55F464646C0B483B00700B6
S3151000B990244D2800244CA0472800A0473D79002DAF
S3151000B9A037D0ABB29846002B2DD03B6801930024BC
S3151000B9B01E4E1F4B9B462A001E490198B047002871
S3151000B9C006D02A001C490198184B9847002801D127
S3151000B9D0D84714E02A0019490198144B98470028B3
S3151000B9E006D02A0016490198104B9847002806D110
S3151000B9F0144B18891321144B9847002301930134D3
S3151000BA00A4B24445D7D3074D2800074CA0472800B9
S3151000BA10A04700233B603B7103B00CBC90469B468D
S3151000BA20F0BDC04674460110513201108734011022
S3151000BA3075B900103C5001104050011044500110CF
S3151000BA404C500110CC6E0110B9CC0010F0B55F4609
S3151000BA5056464D464446F0B483B0041C8B4600212E
S3151000BA60304B9847002809D02D235A46137080234F
S3151000BA701B069C46644401239A4601E000239A461D
S3151000BA80201C294B98470500284B9847011C201C61
S3151000BA90274B98470190092D30DC002D1DDD30E035
S3151000BAA0013C2000C84702000B0000202149B8477E
S3151000BAB0214B9847009001002800204B98473030C2
S3151000BAC03070009928001E4B98470D000136002C47
S3151000BAD0E6D15346013343449A462E235A465146DD
S3151000BAE053545C46544417490198174B98470E4BCC
S3151000BAF09847303060700023A3700CE001239846FD
S3151000BB0001E00023984643465C1C5E4656440F4BA4
S3151000BB1099460F4FC4E703B03CBC90469946A246DF
S3151000BB20AB46F0BD3D0B01105D120110A1120110C4
S3151000BB30510F011000002440AD2D0110C508011051
S3151000BB40910A011000002041290D0110192E011033
S3151000BB5069F50010F0B54F464646C0B4EDB05048F2
S3151000BB60504B9847504B1B785BB2002B02D14F4B72
S3151000BB70984701E04E4B98474B4B01241C57002C1D
S3151000BB8016DD022018564B4DA84700224A4B4B4E45
S3151000BB90B04706000F002000A84702000B00300037
S3151000BBA03900474CA047474B9847474B186016E05B
S3151000BBB0404D2000A84706000F003B4B02201856A8
S3151000BBC0A84700223C4B3D4CA04702000B0030001A
S3151000BBD039003E4CA0473B4B98473B4B18603AA860
S3151000BBE03B4DA8473AAB9C4660440F2239493A4F21
S3151000BBF0B8472D4B9946002018560A2221A9374BD3
S3151000BC009846984721A8A847020021A93AA8344C7B
S3151000BC10A047344E320031003AA8A0473AA8A847A8
S3151000BC203AAB9C4660440E222F49B847264B1868FB
S3151000BC3069462E4B9847042269463AA8A047320017
S3151000BC4031003AA8A0473AA8A8473AAB9C466044A8
S3151000BC500B222749B8474B46032018560A2208A933
S3151000BC60C04708A8A847020008A93AA8A047002478
S3151000BC703AAD174E1F4F02E0285DB8470134280031
S3151000BC80B047A042F8D80D201A4B9847C822002179
S3151000BC903AA8194B98476DB00CBC90469946F0BD22
S3151000BCA0687B0110D1820010606D011075B900100B
S3151000BCB065B90010192E01100000244089190110D1
S3151000BCC0311301100D2F0110646D0110C5260110DE
S3151000BCD051340110545001100D310110E73001108C
S3151000BCE05F34011064500110685001104DBA0010F5
S3151000BCF0785001109DB800101F310110F0B55F4645
S3151000BD0056464D464446F0B48BB0684B9847684B40
S3151000BD109847684B9847684A136801218B4313600C
S3151000BD2000210020654B98476846654B9847962337
S3151000BD309B01009302230293032203920132049281
S3151000BD400132059206930793089309935D4D5E4C55
S3151000BD506A465E492800A0470028F9D1594C2000B0
S3151000BD605B4B984720005B4B984768465A4EB04746
S3151000BD70022398469A466B4642461A730025DD7290
S3151000BD80DA70564F69463800554B9B4698476846B9
S3151000BD90B0470123994601266B464A46DA709D70D4
S3151000BDA01A71504D69462800D8474F490B7B3343CB
S3151000BDB0524613430B7303239C46CB6862461340CB
S3151000BDC0CB6004238B60494B0B6023684B60484C57
S3151000BDD0227B32435046024322736246E068024099
S3151000BDE0E2600422A26010332360404B6360380087
S3151000BDF0404B9A46984721002800D0473E4B7B601F
S3151000BE003E4B6B602423FA5C3243FA54EA5C1643C9
S3151000BE10EE54802212023A4B1A602800394B98478A
S3151000BE206846394B98476B464A461A7042465A70CE
S3151000BE3069461620354B984701211620344B9847F2
S3151000BE403448354B98473548354B984796213548F1
S3151000BE50354B98470020354B98470020344B984770
S3151000BE60344B9847344A00210020344B98473448C5
S3151000BE70344B98473448354B98473548354B984797
S3151000BE80354B1B78002B08D001267642334D324CA9
S3151000BE903000A8472378002BFAD100200BB03CBC09
S3151000BEA090469946A246AB46F0BDC04659B1001021
S3151000BEB0ADB60010A9AD001010E000E0A988001082
S3151000BEC03593001044770110619300100040004034
S3151000BED0BD950010F5950010F9810010987A0110A3
S3151000BEE049830010687B0110987F0110606D011066
S3151000BEF0887A0110298200106DB8001055BB001009
S3151000BF0000E100E0D18200100985001019850010AB
S3151000BF10D186001074460110513201108450011060
S3151000BF2031310110D07A011015990010D9A30010E3
S3151000BF3021990010BD990010B050011009A30010EE
S3151000BF4085B90010199A001025B90010F1AB001030
S3151000BF509DB8001025AF0010F05201101DAB001057
S3151000BF6070B5124D2C68002C14D02668E2602E6035
S3151000BF7000250F4A238113682560A080E180AB421B
S3151000BF8001D1146011E01A68002A01D0131CFAE7D7
S3151000BF901C600AE0C4B2002C07D1064CE2600122F4
S3151000BFA02381054BA080E1801A7070BD806D011051
S3151000BFB07C6D0110686D0110786D011010B5084B7D
S3151000BFC0000900011A680818814203D00A600A1C89
S3151000BFD01031F9E71A600022024B1A6010BDC046F4
S3151000BFE0806D01107C6D011038B51B4C031C258823
S3151000BFF0081C211C9D4207D1A588854204D1012326
S3151000C0005B422380A26009E04C889C420AD18C884E
S3151000C010844207D101235B424B808A600F4B9847BD
S3151000C020012017E00E498B420ED00E498B4207D0E5
S3151000C0300D4900208B420DD1101C0C4B9847EFE791
S3151000C040111C0B4B002202E0111C0022094B9847D1
S3151000C0504342584138BDC046A87F01102DDB001061
S3151000C060130E0000150E0000010E00009DDE0010DC
S3151000C0705DE0001035E100100023F0B587B00492A2
S3151000C0800370049B0390013B0D1C0593033302D8E8
S3151000C0900498AE4B9847059BAD4C033302D9002349
S3151000C0A0029315E0002302932368002B13D1029B01
S3151000C0B0D02B00D1DAE20498A64B984702900228BA
S3151000C0C0F2D13FE00498A34B98470290022839D04A
S3151000C0D02368002BF6D0029BD02B00D1C6E2029B20
S3151000C0E0033B5A1E9341029A5B421A4023680292FE
S3151000C0F0002B00D1C2E21A68DE682260DA8801924B
S3151000C100954A9C88116813601960944B1B78012B13
S3151000C1100FD1934B924A9888D988D2681B89914F30
S3151000C120B8471022904B8E480021984700238B4A1F
S3151000C1301370029B002B14D18C4B9C4209D08C4B54
S3151000C1409C4227D13A23039A1370002302931D1C95
S3151000C15007E0019BA34200D08AE23823039A1370AA
S3151000C1602E60039B1B783B2B01D1824B9847039B78
S3151000C1701B783B2B03D0059B033304D983E2029B28
S3151000C180002B88D0F7E7029BD02B00D17BE27A4BAD
S3151000C190984778E2019BBB2B25D1BB2C23D16B464C
S3151000C1A01B89AB80B3787278F0781B0213437179D0
S3151000C1B03279A87071482B80834206D8704A934210
S3151000C1C00BD2704A934208D009E06F48834206D1D9
S3151000C1D00B021343AB80372302E0362300E0002323
S3151000C1E0039A1370BDE7694B9C4200D144E165D8B0
S3151000C1F0674B9C4200D1D5E12FD8664B9C4200D1AB
S3151000C200E0E113D8644B9C4200D1A3E104D8382650
S3151000C210B44200D125E217E1604B9C4200D19FE168
S3151000C220FE33FF339C4200D1D3E10DE15C4B9C42BF
S3151000C23000D1A9E108D85B4B9C4200D196E15A4B3C
S3151000C2409C4200D199E1FFE0584B9C4200D1A2E1FB
S3151000C250574B9C4200D1D4E1F6E0564B9C4200D19C
S3151000C260C8E112D8544B9C4200D1D1E104D8534BAB
S3151000C2709C4200D19BE1E7E0514B9C4200D1ADE1DD
S3151000C280504B9C4200D1B0E1DEE04F4B9C4200D1B6
S3151000C290E0E009D8083B9C4200D1D7E04B4B392649
S3151000C2A09C4200D1DDE1CFE0D1231B019C4200D19D
S3151000C2B0D6E0474B9C4200D1D8E0C5E0454B9C42A6
S3151000C2C000D117E12ED8444B9C4200D13DE112D843
S3151000C2D0424B9C4200D1E8E004D8033B9C4200D17B
S3151000C2E0D0E0B1E03E4B9C4200D1D0E03D4B9C42A9
S3151000C2F000D1F9E0A8E03C4B9C4200D1DBE008D825
S3151000C3003A4B9C4200D11BE1394B9C4200D1D8E0FC
S3151000C3109AE0384B9C4200D1D8E0374B9C4200D172
S3151000C320DBE091E0354B9C4200D1F7E076D8344BF8
S3151000C3309C4200D1F8E069D8324B9C4200D1E0E033
S3151000C340314B9C4200D1A9E07EE0C04665DB00106F
S3151000C3507C6D011049B40010806D0110786D0110CC
S3151000C360686D011061BF00101F310110FFFF000042
S3151000C370FEFF0000C1B6001067DB00101E20000093
S3151000C3801D200000030C00001F2000001C0D0000E3
S3151000C3900C0C0000020C0000020A0000030A000048
S3151000C3A0060C0000040C0000050C0000070C000031
S3151000C3B0090C0000170C0000120C00000D0C0000F8
S3151000C3C0130C0000150C0000080D0000010D0000F4
S3151000C3D0150D00001B0E00000F0E0000030E0000CE
S3151000C3E0060E00000A0E0000150E0000110E0000C9
S3151000C3F0130E0000170E0000190E0000270E000085
S3151000C400210E00001C0E00001D0E00009F4B9C42CA
S3151000C4107ED09F4B9C4200D18CE015E09D4B9C42F8
S3151000C42000D10AE108D89C4B9C4200D1F7E09B4B07
S3151000C4309C4200D1FAE007E0994B9C4200D103E1FF
S3151000C440984B9C4200D106E100260AE1301C291CBB
S3151000C450954B14E0301C291C944B9847042600E198
S3151000C460301C291C924B98470126FAE0301C291CD7
S3151000C470904B98470F26F4E0301C291C8E4B98479A
S3151000C480061CEEE00198311C2A1C8C4B17E0311C5F
S3151000C49001982A1C8A4B98471126E2E0311C019814
S3151000C4A02A1C884B98471226DBE0301C291C864B29
S3151000C4B098470626D5E0311C2A1C0198834B9847CD
S3151000C4C0DEE70198311C2A1C814BF8E7311C0198D4
S3151000C4D02A1C804B98470D26C3E0311C01982A1C54
S3151000C4E07D4B98470E26BCE00198311C2A1C7B4BCD
S3151000C4F0984784E0311C01982A1C794B98470B26E3
S3151000C500AFE0311C01982A1C764B98471026A8E0FC
S3151000C510301C291C744B98472826A2E0301C291C75
S3151000C520724B984729269CE0301C291C704B984763
S3151000C530272696E0301C291C6E4B98472A2690E039
S3151000C5400198311C2A1C6C4BB9E70198311C2A1C26
S3151000C5506A4BB4E7301C291C694B98472B2680E0A0
S3151000C560301C291C674B98472C267AE0311C019801
S3151000C5702A1C654B9847132673E0311C01982A1C18
S3151000C580624B984714266CE0311C01982A1C604BAC
S3151000C5909847152665E0311C01982A1C5D4B984773
S3151000C5A016265EE00198311C2A1C5B4B87E7311C6E
S3151000C5B001982A1C584B9847A988061C574B28885F
S3151000C5C098474EE0311C01982A1C554B9847232654
S3151000C5D047E00198311C2A1C524B70E7019B301C16
S3151000C5E01F0A2F80291C504B49E70198311C2A1C21
S3151000C5F04E4B64E7301C291C019A4D4B98473B263D
S3151000C6002FE0311C01982A1C4A4B9847182628E01F
S3151000C610311C01982A1C484B9847202621E0311CD2
S3151000C62001982A1C454B984733261AE0311C01986D
S3151000C6302A1C434B9847302613E0311C01982A1CBC
S3151000C640404B984734260CE0311C01982A1C3E4B6F
S3151000C6509847352605E0311C01982A1C3B4B984714
S3151000C6603226039B1E70002302937AE5D023FBE744
S3151000C670019B029EBB2B00D0E6E6F2E7029B002B45
S3151000C68000D06EE5E0E6029807B0F0BD220E00007D
S3151000C690250E0000051B0000011B0000031B0000F7
S3151000C6A0061B0000081B000091E9001075E9001038
S3151000C6B011EC001001ED001025ED001009DD001041
S3151000C6C089E5001005E60010C1DF00105DE00010DE
S3151000C6D035E10010BDE300105DE4001015E5001013
S3151000C6E03DE5001053E500101DE600104BE6001066
S3151000C6F061E600108BE60010B9E40010E3E40010C8
S3151000C70049D7001075D700105DF0001099F0001091
S3151000C710E1F0001025F1001059F100101DF0001085
S3151000C72025F20010ADF100102DD6001099D600108C
S3151000C7305DD6001035F2001075F200103DF50010B0
S3151000C74047F500104DF5001053F500105FF5001079
S3151000C750F7B50E4900240B680F1C1E1C0C4A1568F1
S3151000C7600192002B0ED09A881968824207D1002CAC
S3151000C77001D0216000E00E1C1D601D1C231C1C1C1A
S3151000C7800B1CEEE7019B3E601D60F7BD7C6D011032
S3151000C790806D0110F7B5124A0090136811481F1CDE
S3151000C7A00021844604680192002B14D0D888009A80
S3151000C7B01D68060A96420BD1FD2606400C2E07D19F
S3151000C7C0002901D00D6000E02F1C1C601C1C0B1CE6
S3151000C7D0191C2B1CE8E7019B1F6063461C60F7BD04
S3151000C7E07C6D0110806D011030B5CF23002810D05C
S3151000C7F04A1E1F2A0DD8084A131CAA331980002373
S3151000C8001C1CC55CAC3401331555DCB28C42F7D315
S3151000C8100023181C30BDC0464680011010B5041CFC
S3151000C820CF20002C06D0044BCE38211C9847034B42
S3151000C8301B79237010BDC04625E8001046800110F4
S3151000C840F0B5067989B0CF25032E38D8037811357F
S3151000C8500F2B34D88023878C113D9B009F422ED8F6
S3151000C860C57F837FAD015B011D43C37E1D43437F9F
S3151000C8701B011D43037F9B001D43124BEDB21E711E
S3151000C8800379023B012B01D802230371041C231CDC
S3151000C8900B33618807932379007800930195258CD3
S3151000C8A0621D0295658C079B03950497064DA84754
S3151000C8B02671051C211C03482622044B9847281C68
S3151000C8C009B0F0BD468001101DE700100D310110B2
S3151000C8D0F0B587B003AF54490B22544B041C381CD7
S3151000C8E098470522524B40261A800023514A13605E
S3151000C8F0514A1370514A1370514B9847514B9847F0
S3151000C900514B9847514B9847002C00D189E0A368AA
S3151000C910002B00D185E02369002B00D181E020682F
S3151000C920002802D16368002B7BD1494B6168984778
S3151000C930484B9847012801D9E22672E04648474BF2
S3151000C94098470028F8D1201C454B9847E068A16805
S3151000C950444B98476B460122DC1C201C01A952420D
S3151000C960414B9847002802D12378392BF2D13F4BFF
S3151000C9709847061E55D1031C01213D4A49429A1873
S3151000C98012335181902BF7D13A4C813B23703A4B9D
S3151000C9903A4A6380002323710133581E190101435B
S3151000C9A0023311700132212BF7D1E033FF33A38408
S3151000C9B0231C002573331D70231C72331D70231C1A
S3151000C9C076331D70231CCC331D80221CA023D0323D
S3151000C9D05B001380221CCE321380231CD2331D80A1
S3151000C9E0FA22231C5200D4331A80231CD6331D700E
S3151000C9F0201C234BE57625776577A577E577258483
S3151000CA0065849847231C072274331A70231C04323A
S3151000CA10AA331A802B1C7A5DAC330135E2540B2DE8
S3151000CA20F8D1301C07B0F0BDFC5001100D310110CB
S3151000CA30B47F01102C6E01108C6D0110F452011090
S3151000CA4085F2001035CD001089D400103DD70010A6
S3151000CA50C5D4001059B100103DDA00109DB3001076
S3151000CA60E5DA0010BDBF001079C00010ADE6001069
S3151000CA70B67F011046800110983A000051800110CF
S3151000CA8041C8001038B5451C031CCF20002D18D006
S3151000CA901A78032A15D8012A02D15A78002A10D0FA
S3151000CAA01C1C291C0622074B074898472378074861
S3151000CAB00371074B98472378002B02D1281C054B8E
S3151000CAC0984738BD0D3101104B800110468001107A
S3151000CAD041C8001069DB0010F8B584460F1C161CFF
S3151000CAE01C1C002802D1E220002A2BD0CF201F2F99
S3151000CAF028D81F2C26D86346002B0ED01248134D6B
S3151000CB00002F04D1391C1F22114B984703E06146B0
S3151000CB103A1C104B984772352F70301E12D00B4DA1
S3151000CB200D48002C07D1211C1F22094B733598473D
S3151000CB302C70201C06E0311C221C064B9847002046
S3151000CB4073352C70F8BDC0467A80011046800110EE
S3151000CB501F3101100D31011099800110F0B591B0FF
S3151000CB601F1C16AB1D8817AB1B880D910E9318ABA7
S3151000CB701B78041C0F93424B161C73331B78CF2063
S3151000CB800C93012C03D10E9B002B76D124E0042CA0
S3151000CB9073D88023DB019D426FD8002C02D11F2D44
S3151000CBA06BD903E09F2D01D8012C66D1002F09D037
S3151000CBB00D9BCF20013B012B5FD9012C02D1002DFB
S3151000CBC000D120352F4B9847011C002E43D03378C7
S3151000CBD0601E002B09D13BE08023DB019D424CD81F
S3151000CBE0002E4AD0002FE3D12BE0012303283AD997
S3151000CBF00D20721C02E00E20321EFAD1204C743425
S3151000CC0026780724002E00D0341C00920D9A039427
S3151000CC1004921B4A019502950597723212780E9C62
S3151000CC200692194A07920C9A0892184A0992642297
S3151000CC30624392B20A920F9A154C0B92154AA0476C
S3151000CC401BE0002DBED10F4B98472025011CBEE7D7
S3151000CC500328CDD806E0601E032803D9331C0D2007
S3151000CC60321CCBE7002303F08FFDC60604020F200B
S3151000CC70C2E700220C920C20BEE711B0F0BDC046F0
S3151000CC8046800110F9EB00107A800110998001108E
S3151000CC90D9EA0010983A000010B5054B9847041EC3
S3151000CCA003D1D120034B00019847201C10BDC0466C
S3151000CCB005E9001051C7001038B5041C044B081CB8
S3151000CCC0211C9847051C034B201C9847281C38BD6F
S3151000CCD07DDF001095C7001010B5014CA04710BDA0
S3151000CCE06DE4001010B5CF2300280AD0002908D013
S3151000CCF0002A06D00C78022C03D1034B0131984739
S3151000CD000023181C10BDC04699EC0010CF23022832
S3151000CD1001D8024B1B5C181C7047C0460751011006
S3151000CD20831EDBB203200E2B01D8014AD05C70475C
S3151000CD300A5101100022014B1A807047846D0110B0
S3151000CD40F7B5002B01D1CF2021E00029FBD08A4274
S3151000CD50F9D31C1C071C18780D4B161C0D1C984774
S3151000CD60221C011ECF29EED0131BDBB28B4203D23D
S3151000CD70013210780028F7D08B42E4D001340094A9
S3151000CD80032001972A1C331C024CA0470020FEBD2D
S3151000CD900DCD001005EF001037B5CF2400290AD0AD
S3151000CDA08A4208D30024131C01900A1C0094052003
S3151000CDB0211C024DA847201C3EBDC04605EF0010A1
S3151000CDC037B5CF2400290AD08A4208D30024131C71
S3151000CDD001900A1C00940720211C024DA847201C14
S3151000CDE03EBDC04605EF0010F0B585B0141C0AAA6A
S3151000CDF00D1C02CA061C0CA807781278CF20002931
S3151000CE0014D0002B12D0002F03D0002A0ED1C33815
S3151000CE1003E0501E82410D32101C00930191231C19
S3151000CE20029601212A1C024CA047002005B0F0BD35
S3151000CE3095EF001070B5051C00240C4B19680C4BAF
S3151000CE401E688C4210DC0C206318DA0FD318021CF3
S3151000CE505B105A43B0180288AA4201D2591EF0E755
S3151000CE60AA4202D95C1CECE7002070BD986D011037
S3151000CE70906D011030B50324051C01232540A542F1
S3151000CE8009D0231C2419204205D1023B184202D195
S3151000CE904B1E99418BB230210140302907D04106F3
S3151000CEA001D4810601D5074809E0C10601D5064817
S3151000CEB005E0002A01D00422134380208001184384
S3151000CEC030BDC0460C2000000420000030B5002301
S3151000CED0840703D50133194200D10233040708D55C
S3151000CEE0CC0601D5042400E00C2423438024A4019D
S3151000CEF02343840606D50624214201D10A3400E0D4
S3151000CF0030242343C40606D50624214201D13A34DF
S3151000CF1000E0C024234380246400204200D0234331
S3151000CF20C40702D58024A40023430424204206D03B
S3151000CF30CD0600D40C242343802424012343440625
S3151000CF4001D5084C2343000607D50420C90600D492
S3151000CF500C2003438420800103439003034398B2BB
S3151000CF6030BDC0460410000007B56A460B78137032
S3151000CF704B7853704B8893701B0AD3700B791371CF
S3151000CF80CB88072153711B0A9371014B98470EBD2D
S3151000CF9015F40010F7B5294C1D1C23680190D326F3
S3151000CFA0002B48D01E1C0C3E2660002905D0244FAD
S3151000CFB0BC4660463F68BF1807602148076884462C
S3151000CFC0BE4232D9684680880C3B188023680029F7
S3151000CFD009D0002A07D0604600689A80801A9860A7
S3151000CFE0184B984702E000219A8099600023226826
S3151000CFF0937003332B40032B01D06B0704D501210B
S3151000D000226893780B43937030232B40302B01D03A
S3151000D0106B0604D50221226893780B4393700A4A53
S3151000D020002613680133136005E0236011260029DA
S3151000D03001D0BA1A0260301CFEBDC046906D0110B8
S3151000D040946D01100D310110986D0110F8B5051C85
S3151000D050CF20002A1CD0141C03221E1C0A400B1CB5
S3151000D060033A514251415A07D20F0A43D203094F8C
S3151000D070281C002A03D0211C321CB84708E0111CBA
S3151000D080B847002804D1281C311C221C024B984793
S3151000D090F8BDC04695CF001015F4001037B5094BF2
S3151000D0A0051C081C0C1C9847002809D08268002A09
S3151000D0B006D08388291C0092201C0022024CA0470F
S3151000D0C03EBDC04635CE001095ED0010F0B58BB0C4
S3151000D0D0069310AB029204CB051C1B880591039393
S3151000D0E012AB1B78CF200493002D00D1CAE1002982
S3151000D0F000D1C7E1002A00D1C4E1039B002B00D167
S3151000D100C0E1C94B04301E68002E00D1BAE10024DC
S3151000D110C64B34801B88B71D211C10227380381C07
S3151000D120C34B98472878C34B9847691C021CC24BBF
S3151000D130381C984704222B78029D1B011343049A2E
S3151000D14074719201134333711623069A12355343A1
S3151000D150029A1233D718BD420FD0B84B29880093C4
S3151000D1600E2306AA9B180193B54C301C01220223EC
S3151000D170A0471635041EEED083E1109F0023143706
S3151000D1803D1C0293029B039A934200DBBFE0AD4B1A
S3151000D19006AA00930E239B180193A94C301C042158
S3151000D1A001220223A047041E00D06AE12B1C123B69
S3151000D1B02C7B1B78211C1A1C04932888A24B984799
S3151000D1C003232340033B594259410123A4081C4021
S3151000D1D00C436B89E4031C430790964B04989847BD
S3151000D1E02A1C113A0092033A031C0192211C301C8E
S3151000D1F0934C079AA047041E00D042E1C0222B8808
S3151000D2005200134204D1AB8A0493002B16D13AE094
S3151000D2100122D9091140DB0501D5022319438B4B95
S3151000D22006AA00930E239B180193854C0902301C05
S3151000D23001220223A047041EE5D022E180232A887A
S3151000D2402C7F5B001A40201C0121002A00D00A1CEA
S3151000D2507F4B984703222240033A514251417D4B5E
S3151000D2600A1C00932B1C6407E40F2243D2031043BD
S3151000D270203382B20193724C301C04990223A047CA
S3151000D280041E00D0FDE001212B880B4211D0A87F8F
S3151000D2906F4B00229847704B021C00932B1C2433B3
S3151000D2A00193674C301C6D490223A047041E00D021
S3151000D2B0E7E030232A881A4212D00121687F0A1C1F
S3151000D2C0634B9847664B021C00932B1C2233019329
S3151000D2D05B4C301C61490223A047041E00D0D0E0ED
S3151000D2E0AB69002B0ED05F4B06AA00930E239B183A
S3151000D2F00193534C301C072101220223A047041E20
S3151000D30000D0BEE0029B3C35013302933AE7301C55
S3151000D310554B9847041E00D0B3E03388059A138006
S3151000D3203688069B039AF618B3B202933C235343EE
S3151000D330109A1433D3180493049B9F4200D1A0E093
S3151000D340029B9D1C3B1CADB2143B1D8003933B8975
S3151000D350002B08D1C0233A885B001A4226D0029EC1
S3151000D3600336B5B222E003213B7B194003394A420A
S3151000D3704A415907C90F1143C9037A89002907D0B1
S3151000D3807968002900D13949281C394EB0470AE07E
S3151000D390281C374EB047002872D1039B398918884C
S3151000D3A07A68344B98470028D4D069E0BB8A002BA2
S3151000D3B00AD00135ADB23D84397FFB8A281C3A6903
S3151000D3C02D4EB04700285BD13B88DB070DD50022D8
S3151000D3D00135ADB209A9BD84BB7F281C0A704A70FD
S3151000D3E0234E0232B04700284AD130233A881A42D7
S3151000D3F00DD000220135ADB209A97D847B7F281C92
S3151000D4000A704A701A4E0232B047002838D1B969EC
S3151000D410002906D00135ADB2281C184B98470028B4
S3151000D4202ED13C37029587E7A06D0110B47F01100D
S3151000D4301F3101100DCD00100D31011023510110B7
S3151000D440A5F3001025510110CDCE00102151011069
S3151000D45075CE00101D5101101F51011002800000E1
S3151000D460195101101B51011099F200108C6D011009
S3151000D47095CF001015F400104DD0001069CF001094
S3151000D480041C201C0BB0F0BD0023074A1370074A7A
S3151000D4901360074A1360074A1360074A1360074A66
S3151000D4A01360074A136070478C6D01109C6D011054
S3151000D4B0986D0110886D0110946D0110906D01101A
S3151000D4C0A06D01100A4B0B4A18604B0813600A4AEC
S3151000D4D0C3181360094A411813600323002203314D
S3151000D4E09943074B04391960064B1A607047C046BA
S3151000D4F0A06D01109C6D0110886D0110946D0110C6
